{
  "_format": "hh-sol-artifact-1",
  "contractName": "OctoToken721",
  "sourceName": "contracts/OctoToken721.sol",
  "abi": [
    {
      "inputs": [
        {
          "internalType": "string",
          "name": "_name",
          "type": "string"
        },
        {
          "internalType": "string",
          "name": "_symbol",
          "type": "string"
        }
      ],
      "stateMutability": "nonpayable",
      "type": "constructor"
    },
    {
      "anonymous": false,
      "inputs": [
        {
          "indexed": true,
          "internalType": "address",
          "name": "owner",
          "type": "address"
        },
        {
          "indexed": true,
          "internalType": "address",
          "name": "approved",
          "type": "address"
        },
        {
          "indexed": true,
          "internalType": "uint256",
          "name": "tokenId",
          "type": "uint256"
        }
      ],
      "name": "Approval",
      "type": "event"
    },
    {
      "anonymous": false,
      "inputs": [
        {
          "indexed": true,
          "internalType": "address",
          "name": "owner",
          "type": "address"
        },
        {
          "indexed": true,
          "internalType": "address",
          "name": "operator",
          "type": "address"
        },
        {
          "indexed": false,
          "internalType": "bool",
          "name": "approved",
          "type": "bool"
        }
      ],
      "name": "ApprovalForAll",
      "type": "event"
    },
    {
      "anonymous": false,
      "inputs": [
        {
          "indexed": true,
          "internalType": "address",
          "name": "previousOwner",
          "type": "address"
        },
        {
          "indexed": true,
          "internalType": "address",
          "name": "newOwner",
          "type": "address"
        }
      ],
      "name": "OwnershipTransferred",
      "type": "event"
    },
    {
      "anonymous": false,
      "inputs": [
        {
          "indexed": true,
          "internalType": "address",
          "name": "from",
          "type": "address"
        },
        {
          "indexed": true,
          "internalType": "address",
          "name": "to",
          "type": "address"
        },
        {
          "indexed": true,
          "internalType": "uint256",
          "name": "tokenId",
          "type": "uint256"
        }
      ],
      "name": "Transfer",
      "type": "event"
    },
    {
      "inputs": [
        {
          "internalType": "address",
          "name": "to",
          "type": "address"
        },
        {
          "internalType": "uint256",
          "name": "tokenId",
          "type": "uint256"
        }
      ],
      "name": "approve",
      "outputs": [],
      "stateMutability": "nonpayable",
      "type": "function"
    },
    {
      "inputs": [
        {
          "internalType": "address",
          "name": "owner",
          "type": "address"
        }
      ],
      "name": "balanceOf",
      "outputs": [
        {
          "internalType": "uint256",
          "name": "",
          "type": "uint256"
        }
      ],
      "stateMutability": "view",
      "type": "function"
    },
    {
      "inputs": [
        {
          "internalType": "uint256",
          "name": "tokenId",
          "type": "uint256"
        }
      ],
      "name": "burn",
      "outputs": [],
      "stateMutability": "nonpayable",
      "type": "function"
    },
    {
      "inputs": [
        {
          "internalType": "uint256",
          "name": "tokenId",
          "type": "uint256"
        }
      ],
      "name": "getApproved",
      "outputs": [
        {
          "internalType": "address",
          "name": "",
          "type": "address"
        }
      ],
      "stateMutability": "view",
      "type": "function"
    },
    {
      "inputs": [
        {
          "internalType": "address",
          "name": "owner",
          "type": "address"
        },
        {
          "internalType": "address",
          "name": "operator",
          "type": "address"
        }
      ],
      "name": "isApprovedForAll",
      "outputs": [
        {
          "internalType": "bool",
          "name": "",
          "type": "bool"
        }
      ],
      "stateMutability": "view",
      "type": "function"
    },
    {
      "inputs": [],
      "name": "name",
      "outputs": [
        {
          "internalType": "string",
          "name": "",
          "type": "string"
        }
      ],
      "stateMutability": "view",
      "type": "function"
    },
    {
      "inputs": [],
      "name": "owner",
      "outputs": [
        {
          "internalType": "address",
          "name": "",
          "type": "address"
        }
      ],
      "stateMutability": "view",
      "type": "function"
    },
    {
      "inputs": [
        {
          "internalType": "uint256",
          "name": "tokenId",
          "type": "uint256"
        }
      ],
      "name": "ownerOf",
      "outputs": [
        {
          "internalType": "address",
          "name": "",
          "type": "address"
        }
      ],
      "stateMutability": "view",
      "type": "function"
    },
    {
      "inputs": [],
      "name": "renounceOwnership",
      "outputs": [],
      "stateMutability": "nonpayable",
      "type": "function"
    },
    {
      "inputs": [
        {
          "internalType": "address",
          "name": "to",
          "type": "address"
        },
        {
          "internalType": "uint256",
          "name": "tokenId",
          "type": "uint256"
        }
      ],
      "name": "safeMint",
      "outputs": [],
      "stateMutability": "nonpayable",
      "type": "function"
    },
    {
      "inputs": [
        {
          "internalType": "address",
          "name": "from",
          "type": "address"
        },
        {
          "internalType": "address",
          "name": "to",
          "type": "address"
        },
        {
          "internalType": "uint256",
          "name": "tokenId",
          "type": "uint256"
        }
      ],
      "name": "safeTransferFrom",
      "outputs": [],
      "stateMutability": "nonpayable",
      "type": "function"
    },
    {
      "inputs": [
        {
          "internalType": "address",
          "name": "from",
          "type": "address"
        },
        {
          "internalType": "address",
          "name": "to",
          "type": "address"
        },
        {
          "internalType": "uint256",
          "name": "tokenId",
          "type": "uint256"
        },
        {
          "internalType": "bytes",
          "name": "_data",
          "type": "bytes"
        }
      ],
      "name": "safeTransferFrom",
      "outputs": [],
      "stateMutability": "nonpayable",
      "type": "function"
    },
    {
      "inputs": [
        {
          "internalType": "address",
          "name": "operator",
          "type": "address"
        },
        {
          "internalType": "bool",
          "name": "approved",
          "type": "bool"
        }
      ],
      "name": "setApprovalForAll",
      "outputs": [],
      "stateMutability": "nonpayable",
      "type": "function"
    },
    {
      "inputs": [
        {
          "internalType": "bytes4",
          "name": "interfaceId",
          "type": "bytes4"
        }
      ],
      "name": "supportsInterface",
      "outputs": [
        {
          "internalType": "bool",
          "name": "",
          "type": "bool"
        }
      ],
      "stateMutability": "view",
      "type": "function"
    },
    {
      "inputs": [],
      "name": "symbol",
      "outputs": [
        {
          "internalType": "string",
          "name": "",
          "type": "string"
        }
      ],
      "stateMutability": "view",
      "type": "function"
    },
    {
      "inputs": [
        {
          "internalType": "uint256",
          "name": "tokenId",
          "type": "uint256"
        }
      ],
      "name": "tokenURI",
      "outputs": [
        {
          "internalType": "string",
          "name": "",
          "type": "string"
        }
      ],
      "stateMutability": "view",
      "type": "function"
    },
    {
      "inputs": [
        {
          "internalType": "address",
          "name": "from",
          "type": "address"
        },
        {
          "internalType": "address",
          "name": "to",
          "type": "address"
        },
        {
          "internalType": "uint256",
          "name": "tokenId",
          "type": "uint256"
        }
      ],
      "name": "transferFrom",
      "outputs": [],
      "stateMutability": "nonpayable",
      "type": "function"
    },
    {
      "inputs": [
        {
          "internalType": "address",
          "name": "newOwner",
          "type": "address"
        }
      ],
      "name": "transferOwnership",
      "outputs": [],
      "stateMutability": "nonpayable",
      "type": "function"
    }
  ],
  "bytecode": "0x60806040523480156200001157600080fd5b506040516200323038038062003230833981810160405281019062000037919062000285565b818181600090805190602001906200005192919062000163565b5080600190805190602001906200006a92919062000163565b5050506200008d620000816200009560201b60201c565b6200009d60201b60201c565b505062000468565b600033905090565b6000600660009054906101000a900473ffffffffffffffffffffffffffffffffffffffff16905081600660006101000a81548173ffffffffffffffffffffffffffffffffffffffff021916908373ffffffffffffffffffffffffffffffffffffffff1602179055508173ffffffffffffffffffffffffffffffffffffffff168173ffffffffffffffffffffffffffffffffffffffff167f8be0079c531659141344cd1fd0a4f28419497f9722a3daafe3b4186f6b6457e060405160405180910390a35050565b82805462000171906200038d565b90600052602060002090601f016020900481019282620001955760008555620001e1565b82601f10620001b057805160ff1916838001178555620001e1565b82800160010185558215620001e1579182015b82811115620001e0578251825591602001919060010190620001c3565b5b509050620001f09190620001f4565b5090565b5b808211156200020f576000816000905550600101620001f5565b5090565b60006200022a620002248462000321565b620002f8565b9050828152602081018484840111156200024357600080fd5b6200025084828562000357565b509392505050565b600082601f8301126200026a57600080fd5b81516200027c84826020860162000213565b91505092915050565b600080604083850312156200029957600080fd5b600083015167ffffffffffffffff811115620002b457600080fd5b620002c28582860162000258565b925050602083015167ffffffffffffffff811115620002e057600080fd5b620002ee8582860162000258565b9150509250929050565b60006200030462000317565b9050620003128282620003c3565b919050565b6000604051905090565b600067ffffffffffffffff8211156200033f576200033e62000428565b5b6200034a8262000457565b9050602081019050919050565b60005b83811015620003775780820151818401526020810190506200035a565b8381111562000387576000848401525b50505050565b60006002820490506001821680620003a657607f821691505b60208210811415620003bd57620003bc620003f9565b5b50919050565b620003ce8262000457565b810181811067ffffffffffffffff82111715620003f057620003ef62000428565b5b80604052505050565b7f4e487b7100000000000000000000000000000000000000000000000000000000600052602260045260246000fd5b7f4e487b7100000000000000000000000000000000000000000000000000000000600052604160045260246000fd5b6000601f19601f8301169050919050565b612db880620004786000396000f3fe608060405234801561001057600080fd5b50600436106101165760003560e01c8063715018a6116100a2578063a22cb46511610071578063a22cb465146102cb578063b88d4fde146102e7578063c87b56dd14610303578063e985e9c514610333578063f2fde38b1461036357610116565b8063715018a6146102695780638da5cb5b1461027357806395d89b4114610291578063a1448194146102af57610116565b806323b872dd116100e957806323b872dd146101b557806342842e0e146101d157806342966c68146101ed5780636352211e1461020957806370a082311461023957610116565b806301ffc9a71461011b57806306fdde031461014b578063081812fc14610169578063095ea7b314610199575b600080fd5b61013560048036038101906101309190611e2a565b61037f565b6040516101429190612253565b60405180910390f35b610153610461565b604051610160919061226e565b60405180910390f35b610183600480360381019061017e9190611e7c565b6104f3565b60405161019091906121ec565b60405180910390f35b6101b360048036038101906101ae9190611dee565b610578565b005b6101cf60048036038101906101ca9190611ce8565b610690565b005b6101eb60048036038101906101e69190611ce8565b6106f0565b005b61020760048036038101906102029190611e7c565b610710565b005b610223600480360381019061021e9190611e7c565b61076c565b60405161023091906121ec565b60405180910390f35b610253600480360381019061024e9190611c83565b61081e565b60405161026091906124b0565b60405180910390f35b6102716108d6565b005b61027b61095e565b60405161028891906121ec565b60405180910390f35b610299610988565b6040516102a6919061226e565b60405180910390f35b6102c960048036038101906102c49190611dee565b610a1a565b005b6102e560048036038101906102e09190611db2565b610aa4565b005b61030160048036038101906102fc9190611d37565b610aba565b005b61031d60048036038101906103189190611e7c565b610b1c565b60405161032a919061226e565b60405180910390f35b61034d60048036038101906103489190611cac565b610bc3565b60405161035a9190612253565b60405180910390f35b61037d60048036038101906103789190611c83565b610c57565b005b60007f80ac58cd000000000000000000000000000000000000000000000000000000007bffffffffffffffffffffffffffffffffffffffffffffffffffffffff1916827bffffffffffffffffffffffffffffffffffffffffffffffffffffffff1916148061044a57507f5b5e139f000000000000000000000000000000000000000000000000000000007bffffffffffffffffffffffffffffffffffffffffffffffffffffffff1916827bffffffffffffffffffffffffffffffffffffffffffffffffffffffff1916145b8061045a575061045982610d4f565b5b9050919050565b606060008054610470906126d5565b80601f016020809104026020016040519081016040528092919081815260200182805461049c906126d5565b80156104e95780601f106104be576101008083540402835291602001916104e9565b820191906000526020600020905b8154815290600101906020018083116104cc57829003601f168201915b5050505050905090565b60006104fe82610db9565b61053d576040517f08c379a0000000000000000000000000000000000000000000000000000000008152600401610534906123f0565b60405180910390fd5b6004600083815260200190815260200160002060009054906101000a900473ffffffffffffffffffffffffffffffffffffffff169050919050565b60006105838261076c565b90508073ffffffffffffffffffffffffffffffffffffffff168373ffffffffffffffffffffffffffffffffffffffff1614156105f4576040517f08c379a00000000000000000000000000000000000000000000000000000000081526004016105eb90612450565b60405180910390fd5b8073ffffffffffffffffffffffffffffffffffffffff16610613610e25565b73ffffffffffffffffffffffffffffffffffffffff16148061064257506106418161063c610e25565b610bc3565b5b610681576040517f08c379a000000000000000000000000000000000000000000000000000000000815260040161067890612370565b60405180910390fd5b61068b8383610e2d565b505050565b6106a161069b610e25565b82610ee6565b6106e0576040517f08c379a00000000000000000000000000000000000000000000000000000000081526004016106d790612470565b60405180910390fd5b6106eb838383610fc4565b505050565b61070b83838360405180602001604052806000815250610aba565b505050565b61072161071b610e25565b82610ee6565b610760576040517f08c379a000000000000000000000000000000000000000000000000000000000815260040161075790612490565b60405180910390fd5b6107698161122b565b50565b6000806002600084815260200190815260200160002060009054906101000a900473ffffffffffffffffffffffffffffffffffffffff169050600073ffffffffffffffffffffffffffffffffffffffff168173ffffffffffffffffffffffffffffffffffffffff161415610815576040517f08c379a000000000000000000000000000000000000000000000000000000000815260040161080c906123b0565b60405180910390fd5b80915050919050565b60008073ffffffffffffffffffffffffffffffffffffffff168273ffffffffffffffffffffffffffffffffffffffff16141561088f576040517f08c379a000000000000000000000000000000000000000000000000000000000815260040161088690612390565b60405180910390fd5b600360008373ffffffffffffffffffffffffffffffffffffffff1673ffffffffffffffffffffffffffffffffffffffff168152602001908152602001600020549050919050565b6108de610e25565b73ffffffffffffffffffffffffffffffffffffffff166108fc61095e565b73ffffffffffffffffffffffffffffffffffffffff1614610952576040517f08c379a000000000000000000000000000000000000000000000000000000000815260040161094990612410565b60405180910390fd5b61095c6000611348565b565b6000600660009054906101000a900473ffffffffffffffffffffffffffffffffffffffff16905090565b606060018054610997906126d5565b80601f01602080910402602001604051908101604052809291908181526020018280546109c3906126d5565b8015610a105780601f106109e557610100808354040283529160200191610a10565b820191906000526020600020905b8154815290600101906020018083116109f357829003601f168201915b5050505050905090565b610a22610e25565b73ffffffffffffffffffffffffffffffffffffffff16610a4061095e565b73ffffffffffffffffffffffffffffffffffffffff1614610a96576040517f08c379a0000000000000000000000000000000000000000000000000000000008152600401610a8d90612410565b60405180910390fd5b610aa0828261140e565b5050565b610ab6610aaf610e25565b838361142c565b5050565b610acb610ac5610e25565b83610ee6565b610b0a576040517f08c379a0000000000000000000000000000000000000000000000000000000008152600401610b0190612470565b60405180910390fd5b610b1684848484611599565b50505050565b6060610b2782610db9565b610b66576040517f08c379a0000000000000000000000000000000000000000000000000000000008152600401610b5d90612430565b60405180910390fd5b6000610b706115f5565b90506000815111610b905760405180602001604052806000815250610bbb565b80610b9a8461160c565b604051602001610bab9291906121c8565b6040516020818303038152906040525b915050919050565b6000600560008473ffffffffffffffffffffffffffffffffffffffff1673ffffffffffffffffffffffffffffffffffffffff16815260200190815260200160002060008373ffffffffffffffffffffffffffffffffffffffff1673ffffffffffffffffffffffffffffffffffffffff16815260200190815260200160002060009054906101000a900460ff16905092915050565b610c5f610e25565b73ffffffffffffffffffffffffffffffffffffffff16610c7d61095e565b73ffffffffffffffffffffffffffffffffffffffff1614610cd3576040517f08c379a0000000000000000000000000000000000000000000000000000000008152600401610cca90612410565b60405180910390fd5b600073ffffffffffffffffffffffffffffffffffffffff168173ffffffffffffffffffffffffffffffffffffffff161415610d43576040517f08c379a0000000000000000000000000000000000000000000000000000000008152600401610d3a906122b0565b60405180910390fd5b610d4c81611348565b50565b60007f01ffc9a7000000000000000000000000000000000000000000000000000000007bffffffffffffffffffffffffffffffffffffffffffffffffffffffff1916827bffffffffffffffffffffffffffffffffffffffffffffffffffffffff1916149050919050565b60008073ffffffffffffffffffffffffffffffffffffffff166002600084815260200190815260200160002060009054906101000a900473ffffffffffffffffffffffffffffffffffffffff1673ffffffffffffffffffffffffffffffffffffffff1614159050919050565b600033905090565b816004600083815260200190815260200160002060006101000a81548173ffffffffffffffffffffffffffffffffffffffff021916908373ffffffffffffffffffffffffffffffffffffffff160217905550808273ffffffffffffffffffffffffffffffffffffffff16610ea08361076c565b73ffffffffffffffffffffffffffffffffffffffff167f8c5be1e5ebec7d5bd14f71427d1e84f3dd0314c0f7b2291e5b200ac8c7c3b92560405160405180910390a45050565b6000610ef182610db9565b610f30576040517f08c379a0000000000000000000000000000000000000000000000000000000008152600401610f2790612350565b60405180910390fd5b6000610f3b8361076c565b90508073ffffffffffffffffffffffffffffffffffffffff168473ffffffffffffffffffffffffffffffffffffffff161480610faa57508373ffffffffffffffffffffffffffffffffffffffff16610f92846104f3565b73ffffffffffffffffffffffffffffffffffffffff16145b80610fbb5750610fba8185610bc3565b5b91505092915050565b8273ffffffffffffffffffffffffffffffffffffffff16610fe48261076c565b73ffffffffffffffffffffffffffffffffffffffff161461103a576040517f08c379a0000000000000000000000000000000000000000000000000000000008152600401611031906122d0565b60405180910390fd5b600073ffffffffffffffffffffffffffffffffffffffff168273ffffffffffffffffffffffffffffffffffffffff1614156110aa576040517f08c379a00000000000000000000000000000000000000000000000000000000081526004016110a190612310565b60405180910390fd5b6110b58383836117b9565b6110c0600082610e2d565b6001600360008573ffffffffffffffffffffffffffffffffffffffff1673ffffffffffffffffffffffffffffffffffffffff168152602001908152602001600020600082825461111091906125eb565b925050819055506001600360008473ffffffffffffffffffffffffffffffffffffffff1673ffffffffffffffffffffffffffffffffffffffff16815260200190815260200160002060008282546111679190612564565b92505081905550816002600083815260200190815260200160002060006101000a81548173ffffffffffffffffffffffffffffffffffffffff021916908373ffffffffffffffffffffffffffffffffffffffff160217905550808273ffffffffffffffffffffffffffffffffffffffff168473ffffffffffffffffffffffffffffffffffffffff167fddf252ad1be2c89b69c2b068fc378daa952ba7f163c4a11628f55a4df523b3ef60405160405180910390a46112268383836117be565b505050565b60006112368261076c565b9050611244816000846117b9565b61124f600083610e2d565b6001600360008373ffffffffffffffffffffffffffffffffffffffff1673ffffffffffffffffffffffffffffffffffffffff168152602001908152602001600020600082825461129f91906125eb565b925050819055506002600083815260200190815260200160002060006101000a81549073ffffffffffffffffffffffffffffffffffffffff021916905581600073ffffffffffffffffffffffffffffffffffffffff168273ffffffffffffffffffffffffffffffffffffffff167fddf252ad1be2c89b69c2b068fc378daa952ba7f163c4a11628f55a4df523b3ef60405160405180910390a4611344816000846117be565b5050565b6000600660009054906101000a900473ffffffffffffffffffffffffffffffffffffffff16905081600660006101000a81548173ffffffffffffffffffffffffffffffffffffffff021916908373ffffffffffffffffffffffffffffffffffffffff1602179055508173ffffffffffffffffffffffffffffffffffffffff168173ffffffffffffffffffffffffffffffffffffffff167f8be0079c531659141344cd1fd0a4f28419497f9722a3daafe3b4186f6b6457e060405160405180910390a35050565b6114288282604051806020016040528060008152506117c3565b5050565b8173ffffffffffffffffffffffffffffffffffffffff168373ffffffffffffffffffffffffffffffffffffffff16141561149b576040517f08c379a000000000000000000000000000000000000000000000000000000000815260040161149290612330565b60405180910390fd5b80600560008573ffffffffffffffffffffffffffffffffffffffff1673ffffffffffffffffffffffffffffffffffffffff16815260200190815260200160002060008473ffffffffffffffffffffffffffffffffffffffff1673ffffffffffffffffffffffffffffffffffffffff16815260200190815260200160002060006101000a81548160ff0219169083151502179055508173ffffffffffffffffffffffffffffffffffffffff168373ffffffffffffffffffffffffffffffffffffffff167f17307eab39ab6107e8899845ad3d59bd9653f200f220920489ca2b5937696c318360405161158c9190612253565b60405180910390a3505050565b6115a4848484610fc4565b6115b08484848461181e565b6115ef576040517f08c379a00000000000000000000000000000000000000000000000000000000081526004016115e690612290565b60405180910390fd5b50505050565b606060405180602001604052806000815250905090565b60606000821415611654576040518060400160405280600181526020017f300000000000000000000000000000000000000000000000000000000000000081525090506117b4565b600082905060005b6000821461168657808061166f90612738565b915050600a8261167f91906125ba565b915061165c565b60008167ffffffffffffffff8111156116c8577f4e487b7100000000000000000000000000000000000000000000000000000000600052604160045260246000fd5b6040519080825280601f01601f1916602001820160405280156116fa5781602001600182028036833780820191505090505b5090505b600085146117ad5760018261171391906125eb565b9150600a856117229190612781565b603061172e9190612564565b60f81b81838151811061176a577f4e487b7100000000000000000000000000000000000000000000000000000000600052603260045260246000fd5b60200101907effffffffffffffffffffffffffffffffffffffffffffffffffffffffffffff1916908160001a905350600a856117a691906125ba565b94506116fe565b8093505050505b919050565b505050565b505050565b6117cd83836119b5565b6117da600084848461181e565b611819576040517f08c379a000000000000000000000000000000000000000000000000000000000815260040161181090612290565b60405180910390fd5b505050565b600061183f8473ffffffffffffffffffffffffffffffffffffffff16611b8f565b156119a8578373ffffffffffffffffffffffffffffffffffffffff1663150b7a02611868610e25565b8786866040518563ffffffff1660e01b815260040161188a9493929190612207565b602060405180830381600087803b1580156118a457600080fd5b505af19250505080156118d557506040513d601f19601f820116820180604052508101906118d29190611e53565b60015b611958573d8060008114611905576040519150601f19603f3d011682016040523d82523d6000602084013e61190a565b606091505b50600081511415611950576040517f08c379a000000000000000000000000000000000000000000000000000000000815260040161194790612290565b60405180910390fd5b805181602001fd5b63150b7a0260e01b7bffffffffffffffffffffffffffffffffffffffffffffffffffffffff1916817bffffffffffffffffffffffffffffffffffffffffffffffffffffffff1916149150506119ad565b600190505b949350505050565b600073ffffffffffffffffffffffffffffffffffffffff168273ffffffffffffffffffffffffffffffffffffffff161415611a25576040517f08c379a0000000000000000000000000000000000000000000000000000000008152600401611a1c906123d0565b60405180910390fd5b611a2e81610db9565b15611a6e576040517f08c379a0000000000000000000000000000000000000000000000000000000008152600401611a65906122f0565b60405180910390fd5b611a7a600083836117b9565b6001600360008473ffffffffffffffffffffffffffffffffffffffff1673ffffffffffffffffffffffffffffffffffffffff1681526020019081526020016000206000828254611aca9190612564565b92505081905550816002600083815260200190815260200160002060006101000a81548173ffffffffffffffffffffffffffffffffffffffff021916908373ffffffffffffffffffffffffffffffffffffffff160217905550808273ffffffffffffffffffffffffffffffffffffffff16600073ffffffffffffffffffffffffffffffffffffffff167fddf252ad1be2c89b69c2b068fc378daa952ba7f163c4a11628f55a4df523b3ef60405160405180910390a4611b8b600083836117be565b5050565b6000808273ffffffffffffffffffffffffffffffffffffffff163b119050919050565b6000611bc5611bc0846124f0565b6124cb565b905082815260208101848484011115611bdd57600080fd5b611be8848285612693565b509392505050565b600081359050611bff81612d26565b92915050565b600081359050611c1481612d3d565b92915050565b600081359050611c2981612d54565b92915050565b600081519050611c3e81612d54565b92915050565b600082601f830112611c5557600080fd5b8135611c65848260208601611bb2565b91505092915050565b600081359050611c7d81612d6b565b92915050565b600060208284031215611c9557600080fd5b6000611ca384828501611bf0565b91505092915050565b60008060408385031215611cbf57600080fd5b6000611ccd85828601611bf0565b9250506020611cde85828601611bf0565b9150509250929050565b600080600060608486031215611cfd57600080fd5b6000611d0b86828701611bf0565b9350506020611d1c86828701611bf0565b9250506040611d2d86828701611c6e565b9150509250925092565b60008060008060808587031215611d4d57600080fd5b6000611d5b87828801611bf0565b9450506020611d6c87828801611bf0565b9350506040611d7d87828801611c6e565b925050606085013567ffffffffffffffff811115611d9a57600080fd5b611da687828801611c44565b91505092959194509250565b60008060408385031215611dc557600080fd5b6000611dd385828601611bf0565b9250506020611de485828601611c05565b9150509250929050565b60008060408385031215611e0157600080fd5b6000611e0f85828601611bf0565b9250506020611e2085828601611c6e565b9150509250929050565b600060208284031215611e3c57600080fd5b6000611e4a84828501611c1a565b91505092915050565b600060208284031215611e6557600080fd5b6000611e7384828501611c2f565b91505092915050565b600060208284031215611e8e57600080fd5b6000611e9c84828501611c6e565b91505092915050565b611eae8161261f565b82525050565b611ebd81612631565b82525050565b6000611ece82612521565b611ed88185612537565b9350611ee88185602086016126a2565b611ef18161286e565b840191505092915050565b6000611f078261252c565b611f118185612548565b9350611f218185602086016126a2565b611f2a8161286e565b840191505092915050565b6000611f408261252c565b611f4a8185612559565b9350611f5a8185602086016126a2565b80840191505092915050565b6000611f73603283612548565b9150611f7e8261287f565b604082019050919050565b6000611f96602683612548565b9150611fa1826128ce565b604082019050919050565b6000611fb9602583612548565b9150611fc48261291d565b604082019050919050565b6000611fdc601c83612548565b9150611fe78261296c565b602082019050919050565b6000611fff602483612548565b915061200a82612995565b604082019050919050565b6000612022601983612548565b915061202d826129e4565b602082019050919050565b6000612045602c83612548565b915061205082612a0d565b604082019050919050565b6000612068603883612548565b915061207382612a5c565b604082019050919050565b600061208b602a83612548565b915061209682612aab565b604082019050919050565b60006120ae602983612548565b91506120b982612afa565b604082019050919050565b60006120d1602083612548565b91506120dc82612b49565b602082019050919050565b60006120f4602c83612548565b91506120ff82612b72565b604082019050919050565b6000612117602083612548565b915061212282612bc1565b602082019050919050565b600061213a602f83612548565b915061214582612bea565b604082019050919050565b600061215d602183612548565b915061216882612c39565b604082019050919050565b6000612180603183612548565b915061218b82612c88565b604082019050919050565b60006121a3603083612548565b91506121ae82612cd7565b604082019050919050565b6121c281612689565b82525050565b60006121d48285611f35565b91506121e08284611f35565b91508190509392505050565b60006020820190506122016000830184611ea5565b92915050565b600060808201905061221c6000830187611ea5565b6122296020830186611ea5565b61223660408301856121b9565b81810360608301526122488184611ec3565b905095945050505050565b60006020820190506122686000830184611eb4565b92915050565b600060208201905081810360008301526122888184611efc565b905092915050565b600060208201905081810360008301526122a981611f66565b9050919050565b600060208201905081810360008301526122c981611f89565b9050919050565b600060208201905081810360008301526122e981611fac565b9050919050565b6000602082019050818103600083015261230981611fcf565b9050919050565b6000602082019050818103600083015261232981611ff2565b9050919050565b6000602082019050818103600083015261234981612015565b9050919050565b6000602082019050818103600083015261236981612038565b9050919050565b600060208201905081810360008301526123898161205b565b9050919050565b600060208201905081810360008301526123a98161207e565b9050919050565b600060208201905081810360008301526123c9816120a1565b9050919050565b600060208201905081810360008301526123e9816120c4565b9050919050565b60006020820190508181036000830152612409816120e7565b9050919050565b600060208201905081810360008301526124298161210a565b9050919050565b600060208201905081810360008301526124498161212d565b9050919050565b6000602082019050818103600083015261246981612150565b9050919050565b6000602082019050818103600083015261248981612173565b9050919050565b600060208201905081810360008301526124a981612196565b9050919050565b60006020820190506124c560008301846121b9565b92915050565b60006124d56124e6565b90506124e18282612707565b919050565b6000604051905090565b600067ffffffffffffffff82111561250b5761250a61283f565b5b6125148261286e565b9050602081019050919050565b600081519050919050565b600081519050919050565b600082825260208201905092915050565b600082825260208201905092915050565b600081905092915050565b600061256f82612689565b915061257a83612689565b9250827fffffffffffffffffffffffffffffffffffffffffffffffffffffffffffffffff038211156125af576125ae6127b2565b5b828201905092915050565b60006125c582612689565b91506125d083612689565b9250826125e0576125df6127e1565b5b828204905092915050565b60006125f682612689565b915061260183612689565b925082821015612614576126136127b2565b5b828203905092915050565b600061262a82612669565b9050919050565b60008115159050919050565b60007fffffffff0000000000000000000000000000000000000000000000000000000082169050919050565b600073ffffffffffffffffffffffffffffffffffffffff82169050919050565b6000819050919050565b82818337600083830152505050565b60005b838110156126c05780820151818401526020810190506126a5565b838111156126cf576000848401525b50505050565b600060028204905060018216806126ed57607f821691505b6020821081141561270157612700612810565b5b50919050565b6127108261286e565b810181811067ffffffffffffffff8211171561272f5761272e61283f565b5b80604052505050565b600061274382612689565b91507fffffffffffffffffffffffffffffffffffffffffffffffffffffffffffffffff821415612776576127756127b2565b5b600182019050919050565b600061278c82612689565b915061279783612689565b9250826127a7576127a66127e1565b5b828206905092915050565b7f4e487b7100000000000000000000000000000000000000000000000000000000600052601160045260246000fd5b7f4e487b7100000000000000000000000000000000000000000000000000000000600052601260045260246000fd5b7f4e487b7100000000000000000000000000000000000000000000000000000000600052602260045260246000fd5b7f4e487b7100000000000000000000000000000000000000000000000000000000600052604160045260246000fd5b6000601f19601f8301169050919050565b7f4552433732313a207472616e7366657220746f206e6f6e20455243373231526560008201527f63656976657220696d706c656d656e7465720000000000000000000000000000602082015250565b7f4f776e61626c653a206e6577206f776e657220697320746865207a65726f206160008201527f6464726573730000000000000000000000000000000000000000000000000000602082015250565b7f4552433732313a207472616e736665722066726f6d20696e636f72726563742060008201527f6f776e6572000000000000000000000000000000000000000000000000000000602082015250565b7f4552433732313a20746f6b656e20616c7265616479206d696e74656400000000600082015250565b7f4552433732313a207472616e7366657220746f20746865207a65726f2061646460008201527f7265737300000000000000000000000000000000000000000000000000000000602082015250565b7f4552433732313a20617070726f766520746f2063616c6c657200000000000000600082015250565b7f4552433732313a206f70657261746f7220717565727920666f72206e6f6e657860008201527f697374656e7420746f6b656e0000000000000000000000000000000000000000602082015250565b7f4552433732313a20617070726f76652063616c6c6572206973206e6f74206f7760008201527f6e6572206e6f7220617070726f76656420666f7220616c6c0000000000000000602082015250565b7f4552433732313a2062616c616e636520717565727920666f7220746865207a6560008201527f726f206164647265737300000000000000000000000000000000000000000000602082015250565b7f4552433732313a206f776e657220717565727920666f72206e6f6e657869737460008201527f656e7420746f6b656e0000000000000000000000000000000000000000000000602082015250565b7f4552433732313a206d696e7420746f20746865207a65726f2061646472657373600082015250565b7f4552433732313a20617070726f76656420717565727920666f72206e6f6e657860008201527f697374656e7420746f6b656e0000000000000000000000000000000000000000602082015250565b7f4f776e61626c653a2063616c6c6572206973206e6f7420746865206f776e6572600082015250565b7f4552433732314d657461646174613a2055524920717565727920666f72206e6f60008201527f6e6578697374656e7420746f6b656e0000000000000000000000000000000000602082015250565b7f4552433732313a20617070726f76616c20746f2063757272656e74206f776e6560008201527f7200000000000000000000000000000000000000000000000000000000000000602082015250565b7f4552433732313a207472616e736665722063616c6c6572206973206e6f74206f60008201527f776e6572206e6f7220617070726f766564000000000000000000000000000000602082015250565b7f4552433732314275726e61626c653a2063616c6c6572206973206e6f74206f7760008201527f6e6572206e6f7220617070726f76656400000000000000000000000000000000602082015250565b612d2f8161261f565b8114612d3a57600080fd5b50565b612d4681612631565b8114612d5157600080fd5b50565b612d5d8161263d565b8114612d6857600080fd5b50565b612d7481612689565b8114612d7f57600080fd5b5056fea26469706673582212203ac6a3f1424b6333b8d325d4c9ff61c6e627e45fc75a4955c856589913de024764736f6c63430008020033",
  "linkReferences": {},
  "deployedLinkReferences": {}
}