{
  "_format": "hh-sol-artifact-1",
  "contractName": "OctoToken721",
  "sourceName": "contracts/OctoToken721.sol",
  "abi": [
    {
      "inputs": [
        {
          "internalType": "string",
          "name": "_name",
          "type": "string"
        },
        {
          "internalType": "string",
          "name": "_symbol",
          "type": "string"
        }
      ],
      "stateMutability": "nonpayable",
      "type": "constructor"
    },
    {
      "anonymous": false,
      "inputs": [
        {
          "indexed": true,
          "internalType": "address",
          "name": "owner",
          "type": "address"
        },
        {
          "indexed": true,
          "internalType": "address",
          "name": "approved",
          "type": "address"
        },
        {
          "indexed": true,
          "internalType": "uint256",
          "name": "tokenId",
          "type": "uint256"
        }
      ],
      "name": "Approval",
      "type": "event"
    },
    {
      "anonymous": false,
      "inputs": [
        {
          "indexed": true,
          "internalType": "address",
          "name": "owner",
          "type": "address"
        },
        {
          "indexed": true,
          "internalType": "address",
          "name": "operator",
          "type": "address"
        },
        {
          "indexed": false,
          "internalType": "bool",
          "name": "approved",
          "type": "bool"
        }
      ],
      "name": "ApprovalForAll",
      "type": "event"
    },
    {
      "anonymous": false,
      "inputs": [
        {
          "indexed": true,
          "internalType": "address",
          "name": "previousOwner",
          "type": "address"
        },
        {
          "indexed": true,
          "internalType": "address",
          "name": "newOwner",
          "type": "address"
        }
      ],
      "name": "OwnershipTransferred",
      "type": "event"
    },
    {
      "anonymous": false,
      "inputs": [
        {
          "indexed": true,
          "internalType": "address",
          "name": "from",
          "type": "address"
        },
        {
          "indexed": true,
          "internalType": "address",
          "name": "to",
          "type": "address"
        },
        {
          "indexed": true,
          "internalType": "uint256",
          "name": "tokenId",
          "type": "uint256"
        }
      ],
      "name": "Transfer",
      "type": "event"
    },
    {
      "inputs": [
        {
          "internalType": "address",
          "name": "to",
          "type": "address"
        },
        {
          "internalType": "uint256",
          "name": "tokenId",
          "type": "uint256"
        }
      ],
      "name": "approve",
      "outputs": [],
      "stateMutability": "nonpayable",
      "type": "function"
    },
    {
      "inputs": [
        {
          "internalType": "address",
          "name": "owner",
          "type": "address"
        }
      ],
      "name": "balanceOf",
      "outputs": [
        {
          "internalType": "uint256",
          "name": "",
          "type": "uint256"
        }
      ],
      "stateMutability": "view",
      "type": "function"
    },
    {
      "inputs": [
        {
          "internalType": "uint256",
          "name": "tokenId",
          "type": "uint256"
        }
      ],
      "name": "burn",
      "outputs": [],
      "stateMutability": "nonpayable",
      "type": "function"
    },
    {
      "inputs": [
        {
          "internalType": "uint256",
          "name": "tokenId",
          "type": "uint256"
        }
      ],
      "name": "getApproved",
      "outputs": [
        {
          "internalType": "address",
          "name": "",
          "type": "address"
        }
      ],
      "stateMutability": "view",
      "type": "function"
    },
    {
      "inputs": [
        {
          "internalType": "address",
          "name": "owner",
          "type": "address"
        },
        {
          "internalType": "address",
          "name": "operator",
          "type": "address"
        }
      ],
      "name": "isApprovedForAll",
      "outputs": [
        {
          "internalType": "bool",
          "name": "",
          "type": "bool"
        }
      ],
      "stateMutability": "view",
      "type": "function"
    },
    {
      "inputs": [],
      "name": "name",
      "outputs": [
        {
          "internalType": "string",
          "name": "",
          "type": "string"
        }
      ],
      "stateMutability": "view",
      "type": "function"
    },
    {
      "inputs": [],
      "name": "owner",
      "outputs": [
        {
          "internalType": "address",
          "name": "",
          "type": "address"
        }
      ],
      "stateMutability": "view",
      "type": "function"
    },
    {
      "inputs": [
        {
          "internalType": "uint256",
          "name": "tokenId",
          "type": "uint256"
        }
      ],
      "name": "ownerOf",
      "outputs": [
        {
          "internalType": "address",
          "name": "",
          "type": "address"
        }
      ],
      "stateMutability": "view",
      "type": "function"
    },
    {
      "inputs": [],
      "name": "renounceOwnership",
      "outputs": [],
      "stateMutability": "nonpayable",
      "type": "function"
    },
    {
      "inputs": [
        {
          "internalType": "address",
          "name": "to",
          "type": "address"
        },
        {
          "internalType": "uint256",
          "name": "tokenId",
          "type": "uint256"
        }
      ],
      "name": "safeMint",
      "outputs": [],
      "stateMutability": "nonpayable",
      "type": "function"
    },
    {
      "inputs": [
        {
          "internalType": "address",
          "name": "from",
          "type": "address"
        },
        {
          "internalType": "address",
          "name": "to",
          "type": "address"
        },
        {
          "internalType": "uint256",
          "name": "tokenId",
          "type": "uint256"
        }
      ],
      "name": "safeTransferFrom",
      "outputs": [],
      "stateMutability": "nonpayable",
      "type": "function"
    },
    {
      "inputs": [
        {
          "internalType": "address",
          "name": "from",
          "type": "address"
        },
        {
          "internalType": "address",
          "name": "to",
          "type": "address"
        },
        {
          "internalType": "uint256",
          "name": "tokenId",
          "type": "uint256"
        },
        {
          "internalType": "bytes",
          "name": "_data",
          "type": "bytes"
        }
      ],
      "name": "safeTransferFrom",
      "outputs": [],
      "stateMutability": "nonpayable",
      "type": "function"
    },
    {
      "inputs": [
        {
          "internalType": "address",
          "name": "operator",
          "type": "address"
        },
        {
          "internalType": "bool",
          "name": "approved",
          "type": "bool"
        }
      ],
      "name": "setApprovalForAll",
      "outputs": [],
      "stateMutability": "nonpayable",
      "type": "function"
    },
    {
      "inputs": [
        {
          "internalType": "bytes4",
          "name": "interfaceId",
          "type": "bytes4"
        }
      ],
      "name": "supportsInterface",
      "outputs": [
        {
          "internalType": "bool",
          "name": "",
          "type": "bool"
        }
      ],
      "stateMutability": "view",
      "type": "function"
    },
    {
      "inputs": [],
      "name": "symbol",
      "outputs": [
        {
          "internalType": "string",
          "name": "",
          "type": "string"
        }
      ],
      "stateMutability": "view",
      "type": "function"
    },
    {
      "inputs": [
        {
          "internalType": "uint256",
          "name": "tokenId",
          "type": "uint256"
        }
      ],
      "name": "tokenURI",
      "outputs": [
        {
          "internalType": "string",
          "name": "",
          "type": "string"
        }
      ],
      "stateMutability": "view",
      "type": "function"
    },
    {
      "inputs": [
        {
          "internalType": "address",
          "name": "from",
          "type": "address"
        },
        {
          "internalType": "address",
          "name": "to",
          "type": "address"
        },
        {
          "internalType": "uint256",
          "name": "tokenId",
          "type": "uint256"
        }
      ],
      "name": "transferFrom",
      "outputs": [],
      "stateMutability": "nonpayable",
      "type": "function"
    },
    {
      "inputs": [
        {
          "internalType": "address",
          "name": "newOwner",
          "type": "address"
        }
      ],
      "name": "transferOwnership",
      "outputs": [],
      "stateMutability": "nonpayable",
      "type": "function"
    }
  ],
  "bytecode": "0x60806040523480156200001157600080fd5b506040516200326e3803806200326e8339818101604052810190620000379190620003b0565b818181600090805190602001906200005192919062000163565b5080600190805190602001906200006a92919062000163565b5050506200008d620000816200009560201b60201c565b6200009d60201b60201c565b505062000499565b600033905090565b6000600660009054906101000a900473ffffffffffffffffffffffffffffffffffffffff16905081600660006101000a81548173ffffffffffffffffffffffffffffffffffffffff021916908373ffffffffffffffffffffffffffffffffffffffff1602179055508173ffffffffffffffffffffffffffffffffffffffff168173ffffffffffffffffffffffffffffffffffffffff167f8be0079c531659141344cd1fd0a4f28419497f9722a3daafe3b4186f6b6457e060405160405180910390a35050565b828054620001719062000464565b90600052602060002090601f016020900481019282620001955760008555620001e1565b82601f10620001b057805160ff1916838001178555620001e1565b82800160010185558215620001e1579182015b82811115620001e0578251825591602001919060010190620001c3565b5b509050620001f09190620001f4565b5090565b5b808211156200020f576000816000905550600101620001f5565b5090565b6000604051905090565b600080fd5b600080fd5b600080fd5b600080fd5b6000601f19601f8301169050919050565b7f4e487b7100000000000000000000000000000000000000000000000000000000600052604160045260246000fd5b6200027c8262000231565b810181811067ffffffffffffffff821117156200029e576200029d62000242565b5b80604052505050565b6000620002b362000213565b9050620002c1828262000271565b919050565b600067ffffffffffffffff821115620002e457620002e362000242565b5b620002ef8262000231565b9050602081019050919050565b60005b838110156200031c578082015181840152602081019050620002ff565b838111156200032c576000848401525b50505050565b6000620003496200034384620002c6565b620002a7565b9050828152602081018484840111156200036857620003676200022c565b5b62000375848285620002fc565b509392505050565b600082601f83011262000395576200039462000227565b5b8151620003a784826020860162000332565b91505092915050565b60008060408385031215620003ca57620003c96200021d565b5b600083015167ffffffffffffffff811115620003eb57620003ea62000222565b5b620003f9858286016200037d565b925050602083015167ffffffffffffffff8111156200041d576200041c62000222565b5b6200042b858286016200037d565b9150509250929050565b7f4e487b7100000000000000000000000000000000000000000000000000000000600052602260045260246000fd5b600060028204905060018216806200047d57607f821691505b60208210810362000493576200049262000435565b5b50919050565b612dc580620004a96000396000f3fe608060405234801561001057600080fd5b50600436106101165760003560e01c8063715018a6116100a2578063a22cb46511610071578063a22cb465146102cb578063b88d4fde146102e7578063c87b56dd14610303578063e985e9c514610333578063f2fde38b1461036357610116565b8063715018a6146102695780638da5cb5b1461027357806395d89b4114610291578063a1448194146102af57610116565b806323b872dd116100e957806323b872dd146101b557806342842e0e146101d157806342966c68146101ed5780636352211e1461020957806370a082311461023957610116565b806301ffc9a71461011b57806306fdde031461014b578063081812fc14610169578063095ea7b314610199575b600080fd5b61013560048036038101906101309190611bba565b61037f565b6040516101429190611c02565b60405180910390f35b610153610461565b6040516101609190611cb6565b60405180910390f35b610183600480360381019061017e9190611d0e565b6104f3565b6040516101909190611d7c565b60405180910390f35b6101b360048036038101906101ae9190611dc3565b610578565b005b6101cf60048036038101906101ca9190611e03565b61068f565b005b6101eb60048036038101906101e69190611e03565b6106ef565b005b61020760048036038101906102029190611d0e565b61070f565b005b610223600480360381019061021e9190611d0e565b61076b565b6040516102309190611d7c565b60405180910390f35b610253600480360381019061024e9190611e56565b61081c565b6040516102609190611e92565b60405180910390f35b6102716108d3565b005b61027b61095b565b6040516102889190611d7c565b60405180910390f35b610299610985565b6040516102a69190611cb6565b60405180910390f35b6102c960048036038101906102c49190611dc3565b610a17565b005b6102e560048036038101906102e09190611ed9565b610aa1565b005b61030160048036038101906102fc919061204e565b610ab7565b005b61031d60048036038101906103189190611d0e565b610b19565b60405161032a9190611cb6565b60405180910390f35b61034d600480360381019061034891906120d1565b610bc0565b60405161035a9190611c02565b60405180910390f35b61037d60048036038101906103789190611e56565b610c54565b005b60007f80ac58cd000000000000000000000000000000000000000000000000000000007bffffffffffffffffffffffffffffffffffffffffffffffffffffffff1916827bffffffffffffffffffffffffffffffffffffffffffffffffffffffff1916148061044a57507f5b5e139f000000000000000000000000000000000000000000000000000000007bffffffffffffffffffffffffffffffffffffffffffffffffffffffff1916827bffffffffffffffffffffffffffffffffffffffffffffffffffffffff1916145b8061045a575061045982610d4b565b5b9050919050565b60606000805461047090612140565b80601f016020809104026020016040519081016040528092919081815260200182805461049c90612140565b80156104e95780601f106104be576101008083540402835291602001916104e9565b820191906000526020600020905b8154815290600101906020018083116104cc57829003601f168201915b5050505050905090565b60006104fe82610db5565b61053d576040517f08c379a0000000000000000000000000000000000000000000000000000000008152600401610534906121e3565b60405180910390fd5b6004600083815260200190815260200160002060009054906101000a900473ffffffffffffffffffffffffffffffffffffffff169050919050565b60006105838261076b565b90508073ffffffffffffffffffffffffffffffffffffffff168373ffffffffffffffffffffffffffffffffffffffff16036105f3576040517f08c379a00000000000000000000000000000000000000000000000000000000081526004016105ea90612275565b60405180910390fd5b8073ffffffffffffffffffffffffffffffffffffffff16610612610e21565b73ffffffffffffffffffffffffffffffffffffffff16148061064157506106408161063b610e21565b610bc0565b5b610680576040517f08c379a000000000000000000000000000000000000000000000000000000000815260040161067790612307565b60405180910390fd5b61068a8383610e29565b505050565b6106a061069a610e21565b82610ee2565b6106df576040517f08c379a00000000000000000000000000000000000000000000000000000000081526004016106d690612399565b60405180910390fd5b6106ea838383610fc0565b505050565b61070a83838360405180602001604052806000815250610ab7565b505050565b61072061071a610e21565b82610ee2565b61075f576040517f08c379a00000000000000000000000000000000000000000000000000000000081526004016107569061242b565b60405180910390fd5b61076881611226565b50565b6000806002600084815260200190815260200160002060009054906101000a900473ffffffffffffffffffffffffffffffffffffffff169050600073ffffffffffffffffffffffffffffffffffffffff168173ffffffffffffffffffffffffffffffffffffffff1603610813576040517f08c379a000000000000000000000000000000000000000000000000000000000815260040161080a906124bd565b60405180910390fd5b80915050919050565b60008073ffffffffffffffffffffffffffffffffffffffff168273ffffffffffffffffffffffffffffffffffffffff160361088c576040517f08c379a00000000000000000000000000000000000000000000000000000000081526004016108839061254f565b60405180910390fd5b600360008373ffffffffffffffffffffffffffffffffffffffff1673ffffffffffffffffffffffffffffffffffffffff168152602001908152602001600020549050919050565b6108db610e21565b73ffffffffffffffffffffffffffffffffffffffff166108f961095b565b73ffffffffffffffffffffffffffffffffffffffff161461094f576040517f08c379a0000000000000000000000000000000000000000000000000000000008152600401610946906125bb565b60405180910390fd5b6109596000611343565b565b6000600660009054906101000a900473ffffffffffffffffffffffffffffffffffffffff16905090565b60606001805461099490612140565b80601f01602080910402602001604051908101604052809291908181526020018280546109c090612140565b8015610a0d5780601f106109e257610100808354040283529160200191610a0d565b820191906000526020600020905b8154815290600101906020018083116109f057829003601f168201915b5050505050905090565b610a1f610e21565b73ffffffffffffffffffffffffffffffffffffffff16610a3d61095b565b73ffffffffffffffffffffffffffffffffffffffff1614610a93576040517f08c379a0000000000000000000000000000000000000000000000000000000008152600401610a8a906125bb565b60405180910390fd5b610a9d8282611409565b5050565b610ab3610aac610e21565b8383611427565b5050565b610ac8610ac2610e21565b83610ee2565b610b07576040517f08c379a0000000000000000000000000000000000000000000000000000000008152600401610afe90612399565b60405180910390fd5b610b1384848484611593565b50505050565b6060610b2482610db5565b610b63576040517f08c379a0000000000000000000000000000000000000000000000000000000008152600401610b5a9061264d565b60405180910390fd5b6000610b6d6115ef565b90506000815111610b8d5760405180602001604052806000815250610bb8565b80610b9784611606565b604051602001610ba89291906126a9565b6040516020818303038152906040525b915050919050565b6000600560008473ffffffffffffffffffffffffffffffffffffffff1673ffffffffffffffffffffffffffffffffffffffff16815260200190815260200160002060008373ffffffffffffffffffffffffffffffffffffffff1673ffffffffffffffffffffffffffffffffffffffff16815260200190815260200160002060009054906101000a900460ff16905092915050565b610c5c610e21565b73ffffffffffffffffffffffffffffffffffffffff16610c7a61095b565b73ffffffffffffffffffffffffffffffffffffffff1614610cd0576040517f08c379a0000000000000000000000000000000000000000000000000000000008152600401610cc7906125bb565b60405180910390fd5b600073ffffffffffffffffffffffffffffffffffffffff168173ffffffffffffffffffffffffffffffffffffffff1603610d3f576040517f08c379a0000000000000000000000000000000000000000000000000000000008152600401610d369061273f565b60405180910390fd5b610d4881611343565b50565b60007f01ffc9a7000000000000000000000000000000000000000000000000000000007bffffffffffffffffffffffffffffffffffffffffffffffffffffffff1916827bffffffffffffffffffffffffffffffffffffffffffffffffffffffff1916149050919050565b60008073ffffffffffffffffffffffffffffffffffffffff166002600084815260200190815260200160002060009054906101000a900473ffffffffffffffffffffffffffffffffffffffff1673ffffffffffffffffffffffffffffffffffffffff1614159050919050565b600033905090565b816004600083815260200190815260200160002060006101000a81548173ffffffffffffffffffffffffffffffffffffffff021916908373ffffffffffffffffffffffffffffffffffffffff160217905550808273ffffffffffffffffffffffffffffffffffffffff16610e9c8361076b565b73ffffffffffffffffffffffffffffffffffffffff167f8c5be1e5ebec7d5bd14f71427d1e84f3dd0314c0f7b2291e5b200ac8c7c3b92560405160405180910390a45050565b6000610eed82610db5565b610f2c576040517f08c379a0000000000000000000000000000000000000000000000000000000008152600401610f23906127d1565b60405180910390fd5b6000610f378361076b565b90508073ffffffffffffffffffffffffffffffffffffffff168473ffffffffffffffffffffffffffffffffffffffff161480610fa657508373ffffffffffffffffffffffffffffffffffffffff16610f8e846104f3565b73ffffffffffffffffffffffffffffffffffffffff16145b80610fb75750610fb68185610bc0565b5b91505092915050565b8273ffffffffffffffffffffffffffffffffffffffff16610fe08261076b565b73ffffffffffffffffffffffffffffffffffffffff1614611036576040517f08c379a000000000000000000000000000000000000000000000000000000000815260040161102d90612863565b60405180910390fd5b600073ffffffffffffffffffffffffffffffffffffffff168273ffffffffffffffffffffffffffffffffffffffff16036110a5576040517f08c379a000000000000000000000000000000000000000000000000000000000815260040161109c906128f5565b60405180910390fd5b6110b0838383611766565b6110bb600082610e29565b6001600360008573ffffffffffffffffffffffffffffffffffffffff1673ffffffffffffffffffffffffffffffffffffffff168152602001908152602001600020600082825461110b9190612944565b925050819055506001600360008473ffffffffffffffffffffffffffffffffffffffff1673ffffffffffffffffffffffffffffffffffffffff16815260200190815260200160002060008282546111629190612978565b92505081905550816002600083815260200190815260200160002060006101000a81548173ffffffffffffffffffffffffffffffffffffffff021916908373ffffffffffffffffffffffffffffffffffffffff160217905550808273ffffffffffffffffffffffffffffffffffffffff168473ffffffffffffffffffffffffffffffffffffffff167fddf252ad1be2c89b69c2b068fc378daa952ba7f163c4a11628f55a4df523b3ef60405160405180910390a461122183838361176b565b505050565b60006112318261076b565b905061123f81600084611766565b61124a600083610e29565b6001600360008373ffffffffffffffffffffffffffffffffffffffff1673ffffffffffffffffffffffffffffffffffffffff168152602001908152602001600020600082825461129a9190612944565b925050819055506002600083815260200190815260200160002060006101000a81549073ffffffffffffffffffffffffffffffffffffffff021916905581600073ffffffffffffffffffffffffffffffffffffffff168273ffffffffffffffffffffffffffffffffffffffff167fddf252ad1be2c89b69c2b068fc378daa952ba7f163c4a11628f55a4df523b3ef60405160405180910390a461133f8160008461176b565b5050565b6000600660009054906101000a900473ffffffffffffffffffffffffffffffffffffffff16905081600660006101000a81548173ffffffffffffffffffffffffffffffffffffffff021916908373ffffffffffffffffffffffffffffffffffffffff1602179055508173ffffffffffffffffffffffffffffffffffffffff168173ffffffffffffffffffffffffffffffffffffffff167f8be0079c531659141344cd1fd0a4f28419497f9722a3daafe3b4186f6b6457e060405160405180910390a35050565b611423828260405180602001604052806000815250611770565b5050565b8173ffffffffffffffffffffffffffffffffffffffff168373ffffffffffffffffffffffffffffffffffffffff1603611495576040517f08c379a000000000000000000000000000000000000000000000000000000000815260040161148c90612a1a565b60405180910390fd5b80600560008573ffffffffffffffffffffffffffffffffffffffff1673ffffffffffffffffffffffffffffffffffffffff16815260200190815260200160002060008473ffffffffffffffffffffffffffffffffffffffff1673ffffffffffffffffffffffffffffffffffffffff16815260200190815260200160002060006101000a81548160ff0219169083151502179055508173ffffffffffffffffffffffffffffffffffffffff168373ffffffffffffffffffffffffffffffffffffffff167f17307eab39ab6107e8899845ad3d59bd9653f200f220920489ca2b5937696c31836040516115869190611c02565b60405180910390a3505050565b61159e848484610fc0565b6115aa848484846117cb565b6115e9576040517f08c379a00000000000000000000000000000000000000000000000000000000081526004016115e090612aac565b60405180910390fd5b50505050565b606060405180602001604052806000815250905090565b60606000820361164d576040518060400160405280600181526020017f30000000000000000000000000000000000000000000000000000000000000008152509050611761565b600082905060005b6000821461167f57808061166890612acc565b915050600a826116789190612b43565b9150611655565b60008167ffffffffffffffff81111561169b5761169a611f23565b5b6040519080825280601f01601f1916602001820160405280156116cd5781602001600182028036833780820191505090505b5090505b6000851461175a576001826116e69190612944565b9150600a856116f59190612b74565b60306117019190612978565b60f81b81838151811061171757611716612ba5565b5b60200101907effffffffffffffffffffffffffffffffffffffffffffffffffffffffffffff1916908160001a905350600a856117539190612b43565b94506116d1565b8093505050505b919050565b505050565b505050565b61177a8383611952565b61178760008484846117cb565b6117c6576040517f08c379a00000000000000000000000000000000000000000000000000000000081526004016117bd90612aac565b60405180910390fd5b505050565b60006117ec8473ffffffffffffffffffffffffffffffffffffffff16611b2b565b15611945578373ffffffffffffffffffffffffffffffffffffffff1663150b7a02611815610e21565b8786866040518563ffffffff1660e01b81526004016118379493929190612c29565b6020604051808303816000875af192505050801561187357506040513d601f19601f820116820180604052508101906118709190612c8a565b60015b6118f5573d80600081146118a3576040519150601f19603f3d011682016040523d82523d6000602084013e6118a8565b606091505b5060008151036118ed576040517f08c379a00000000000000000000000000000000000000000000000000000000081526004016118e490612aac565b60405180910390fd5b805181602001fd5b63150b7a0260e01b7bffffffffffffffffffffffffffffffffffffffffffffffffffffffff1916817bffffffffffffffffffffffffffffffffffffffffffffffffffffffff19161491505061194a565b600190505b949350505050565b600073ffffffffffffffffffffffffffffffffffffffff168273ffffffffffffffffffffffffffffffffffffffff16036119c1576040517f08c379a00000000000000000000000000000000000000000000000000000000081526004016119b890612d03565b60405180910390fd5b6119ca81610db5565b15611a0a576040517f08c379a0000000000000000000000000000000000000000000000000000000008152600401611a0190612d6f565b60405180910390fd5b611a1660008383611766565b6001600360008473ffffffffffffffffffffffffffffffffffffffff1673ffffffffffffffffffffffffffffffffffffffff1681526020019081526020016000206000828254611a669190612978565b92505081905550816002600083815260200190815260200160002060006101000a81548173ffffffffffffffffffffffffffffffffffffffff021916908373ffffffffffffffffffffffffffffffffffffffff160217905550808273ffffffffffffffffffffffffffffffffffffffff16600073ffffffffffffffffffffffffffffffffffffffff167fddf252ad1be2c89b69c2b068fc378daa952ba7f163c4a11628f55a4df523b3ef60405160405180910390a4611b276000838361176b565b5050565b6000808273ffffffffffffffffffffffffffffffffffffffff163b119050919050565b6000604051905090565b600080fd5b600080fd5b60007fffffffff0000000000000000000000000000000000000000000000000000000082169050919050565b611b9781611b62565b8114611ba257600080fd5b50565b600081359050611bb481611b8e565b92915050565b600060208284031215611bd057611bcf611b58565b5b6000611bde84828501611ba5565b91505092915050565b60008115159050919050565b611bfc81611be7565b82525050565b6000602082019050611c176000830184611bf3565b92915050565b600081519050919050565b600082825260208201905092915050565b60005b83811015611c57578082015181840152602081019050611c3c565b83811115611c66576000848401525b50505050565b6000601f19601f8301169050919050565b6000611c8882611c1d565b611c928185611c28565b9350611ca2818560208601611c39565b611cab81611c6c565b840191505092915050565b60006020820190508181036000830152611cd08184611c7d565b905092915050565b6000819050919050565b611ceb81611cd8565b8114611cf657600080fd5b50565b600081359050611d0881611ce2565b92915050565b600060208284031215611d2457611d23611b58565b5b6000611d3284828501611cf9565b91505092915050565b600073ffffffffffffffffffffffffffffffffffffffff82169050919050565b6000611d6682611d3b565b9050919050565b611d7681611d5b565b82525050565b6000602082019050611d916000830184611d6d565b92915050565b611da081611d5b565b8114611dab57600080fd5b50565b600081359050611dbd81611d97565b92915050565b60008060408385031215611dda57611dd9611b58565b5b6000611de885828601611dae565b9250506020611df985828601611cf9565b9150509250929050565b600080600060608486031215611e1c57611e1b611b58565b5b6000611e2a86828701611dae565b9350506020611e3b86828701611dae565b9250506040611e4c86828701611cf9565b9150509250925092565b600060208284031215611e6c57611e6b611b58565b5b6000611e7a84828501611dae565b91505092915050565b611e8c81611cd8565b82525050565b6000602082019050611ea76000830184611e83565b92915050565b611eb681611be7565b8114611ec157600080fd5b50565b600081359050611ed381611ead565b92915050565b60008060408385031215611ef057611eef611b58565b5b6000611efe85828601611dae565b9250506020611f0f85828601611ec4565b9150509250929050565b600080fd5b600080fd5b7f4e487b7100000000000000000000000000000000000000000000000000000000600052604160045260246000fd5b611f5b82611c6c565b810181811067ffffffffffffffff82111715611f7a57611f79611f23565b5b80604052505050565b6000611f8d611b4e565b9050611f998282611f52565b919050565b600067ffffffffffffffff821115611fb957611fb8611f23565b5b611fc282611c6c565b9050602081019050919050565b82818337600083830152505050565b6000611ff1611fec84611f9e565b611f83565b90508281526020810184848401111561200d5761200c611f1e565b5b612018848285611fcf565b509392505050565b600082601f83011261203557612034611f19565b5b8135612045848260208601611fde565b91505092915050565b6000806000806080858703121561206857612067611b58565b5b600061207687828801611dae565b945050602061208787828801611dae565b935050604061209887828801611cf9565b925050606085013567ffffffffffffffff8111156120b9576120b8611b5d565b5b6120c587828801612020565b91505092959194509250565b600080604083850312156120e8576120e7611b58565b5b60006120f685828601611dae565b925050602061210785828601611dae565b9150509250929050565b7f4e487b7100000000000000000000000000000000000000000000000000000000600052602260045260246000fd5b6000600282049050600182168061215857607f821691505b60208210810361216b5761216a612111565b5b50919050565b7f4552433732313a20617070726f76656420717565727920666f72206e6f6e657860008201527f697374656e7420746f6b656e0000000000000000000000000000000000000000602082015250565b60006121cd602c83611c28565b91506121d882612171565b604082019050919050565b600060208201905081810360008301526121fc816121c0565b9050919050565b7f4552433732313a20617070726f76616c20746f2063757272656e74206f776e6560008201527f7200000000000000000000000000000000000000000000000000000000000000602082015250565b600061225f602183611c28565b915061226a82612203565b604082019050919050565b6000602082019050818103600083015261228e81612252565b9050919050565b7f4552433732313a20617070726f76652063616c6c6572206973206e6f74206f7760008201527f6e6572206e6f7220617070726f76656420666f7220616c6c0000000000000000602082015250565b60006122f1603883611c28565b91506122fc82612295565b604082019050919050565b60006020820190508181036000830152612320816122e4565b9050919050565b7f4552433732313a207472616e736665722063616c6c6572206973206e6f74206f60008201527f776e6572206e6f7220617070726f766564000000000000000000000000000000602082015250565b6000612383603183611c28565b915061238e82612327565b604082019050919050565b600060208201905081810360008301526123b281612376565b9050919050565b7f4552433732314275726e61626c653a2063616c6c6572206973206e6f74206f7760008201527f6e6572206e6f7220617070726f76656400000000000000000000000000000000602082015250565b6000612415603083611c28565b9150612420826123b9565b604082019050919050565b6000602082019050818103600083015261244481612408565b9050919050565b7f4552433732313a206f776e657220717565727920666f72206e6f6e657869737460008201527f656e7420746f6b656e0000000000000000000000000000000000000000000000602082015250565b60006124a7602983611c28565b91506124b28261244b565b604082019050919050565b600060208201905081810360008301526124d68161249a565b9050919050565b7f4552433732313a2062616c616e636520717565727920666f7220746865207a6560008201527f726f206164647265737300000000000000000000000000000000000000000000602082015250565b6000612539602a83611c28565b9150612544826124dd565b604082019050919050565b600060208201905081810360008301526125688161252c565b9050919050565b7f4f776e61626c653a2063616c6c6572206973206e6f7420746865206f776e6572600082015250565b60006125a5602083611c28565b91506125b08261256f565b602082019050919050565b600060208201905081810360008301526125d481612598565b9050919050565b7f4552433732314d657461646174613a2055524920717565727920666f72206e6f60008201527f6e6578697374656e7420746f6b656e0000000000000000000000000000000000602082015250565b6000612637602f83611c28565b9150612642826125db565b604082019050919050565b600060208201905081810360008301526126668161262a565b9050919050565b600081905092915050565b600061268382611c1d565b61268d818561266d565b935061269d818560208601611c39565b80840191505092915050565b60006126b58285612678565b91506126c18284612678565b91508190509392505050565b7f4f776e61626c653a206e6577206f776e657220697320746865207a65726f206160008201527f6464726573730000000000000000000000000000000000000000000000000000602082015250565b6000612729602683611c28565b9150612734826126cd565b604082019050919050565b600060208201905081810360008301526127588161271c565b9050919050565b7f4552433732313a206f70657261746f7220717565727920666f72206e6f6e657860008201527f697374656e7420746f6b656e0000000000000000000000000000000000000000602082015250565b60006127bb602c83611c28565b91506127c68261275f565b604082019050919050565b600060208201905081810360008301526127ea816127ae565b9050919050565b7f4552433732313a207472616e736665722066726f6d20696e636f72726563742060008201527f6f776e6572000000000000000000000000000000000000000000000000000000602082015250565b600061284d602583611c28565b9150612858826127f1565b604082019050919050565b6000602082019050818103600083015261287c81612840565b9050919050565b7f4552433732313a207472616e7366657220746f20746865207a65726f2061646460008201527f7265737300000000000000000000000000000000000000000000000000000000602082015250565b60006128df602483611c28565b91506128ea82612883565b604082019050919050565b6000602082019050818103600083015261290e816128d2565b9050919050565b7f4e487b7100000000000000000000000000000000000000000000000000000000600052601160045260246000fd5b600061294f82611cd8565b915061295a83611cd8565b92508282101561296d5761296c612915565b5b828203905092915050565b600061298382611cd8565b915061298e83611cd8565b9250827fffffffffffffffffffffffffffffffffffffffffffffffffffffffffffffffff038211156129c3576129c2612915565b5b828201905092915050565b7f4552433732313a20617070726f766520746f2063616c6c657200000000000000600082015250565b6000612a04601983611c28565b9150612a0f826129ce565b602082019050919050565b60006020820190508181036000830152612a33816129f7565b9050919050565b7f4552433732313a207472616e7366657220746f206e6f6e20455243373231526560008201527f63656976657220696d706c656d656e7465720000000000000000000000000000602082015250565b6000612a96603283611c28565b9150612aa182612a3a565b604082019050919050565b60006020820190508181036000830152612ac581612a89565b9050919050565b6000612ad782611cd8565b91507fffffffffffffffffffffffffffffffffffffffffffffffffffffffffffffffff8203612b0957612b08612915565b5b600182019050919050565b7f4e487b7100000000000000000000000000000000000000000000000000000000600052601260045260246000fd5b6000612b4e82611cd8565b9150612b5983611cd8565b925082612b6957612b68612b14565b5b828204905092915050565b6000612b7f82611cd8565b9150612b8a83611cd8565b925082612b9a57612b99612b14565b5b828206905092915050565b7f4e487b7100000000000000000000000000000000000000000000000000000000600052603260045260246000fd5b600081519050919050565b600082825260208201905092915050565b6000612bfb82612bd4565b612c058185612bdf565b9350612c15818560208601611c39565b612c1e81611c6c565b840191505092915050565b6000608082019050612c3e6000830187611d6d565b612c4b6020830186611d6d565b612c586040830185611e83565b8181036060830152612c6a8184612bf0565b905095945050505050565b600081519050612c8481611b8e565b92915050565b600060208284031215612ca057612c9f611b58565b5b6000612cae84828501612c75565b91505092915050565b7f4552433732313a206d696e7420746f20746865207a65726f2061646472657373600082015250565b6000612ced602083611c28565b9150612cf882612cb7565b602082019050919050565b60006020820190508181036000830152612d1c81612ce0565b9050919050565b7f4552433732313a20746f6b656e20616c7265616479206d696e74656400000000600082015250565b6000612d59601c83611c28565b9150612d6482612d23565b602082019050919050565b60006020820190508181036000830152612d8881612d4c565b905091905056fea2646970667358221220be5f76f367e3a4820ce31ec8cae352b5c3488b73c0cc4c261ddf4e924d6b430b64736f6c634300080d0033",
  "linkReferences": {},
  "deployedLinkReferences": {}
}