{
  "_format": "hh-sol-artifact-1",
  "contractName": "TxRelayer",
  "sourceName": "contracts/LayerZero.sol",
  "abi": [
    {
      "inputs": [
        {
          "internalType": "address",
          "name": "_endpoint",
          "type": "address"
        }
      ],
      "stateMutability": "nonpayable",
      "type": "constructor"
    },
    {
      "anonymous": false,
      "inputs": [
        {
          "indexed": true,
          "internalType": "address",
          "name": "previousOwner",
          "type": "address"
        },
        {
          "indexed": true,
          "internalType": "address",
          "name": "newOwner",
          "type": "address"
        }
      ],
      "name": "OwnershipTransferred",
      "type": "event"
    },
    {
      "stateMutability": "payable",
      "type": "fallback"
    },
    {
      "inputs": [
        {
          "internalType": "address",
          "name": "contractAddress",
          "type": "address"
        }
      ],
      "name": "allowBridge",
      "outputs": [],
      "stateMutability": "nonpayable",
      "type": "function"
    },
    {
      "inputs": [
        {
          "internalType": "address",
          "name": "",
          "type": "address"
        }
      ],
      "name": "allowed",
      "outputs": [
        {
          "internalType": "bool",
          "name": "",
          "type": "bool"
        }
      ],
      "stateMutability": "view",
      "type": "function"
    },
    {
      "inputs": [],
      "name": "endpoint",
      "outputs": [
        {
          "internalType": "contract ILayerZeroEndpoint",
          "name": "",
          "type": "address"
        }
      ],
      "stateMutability": "view",
      "type": "function"
    },
    {
      "inputs": [
        {
          "internalType": "uint16",
          "name": "_srcChainId",
          "type": "uint16"
        },
        {
          "internalType": "bytes",
          "name": "_srcAddress",
          "type": "bytes"
        }
      ],
      "name": "forceResumeReceive",
      "outputs": [],
      "stateMutability": "nonpayable",
      "type": "function"
    },
    {
      "inputs": [
        {
          "internalType": "uint16",
          "name": "",
          "type": "uint16"
        },
        {
          "internalType": "uint16",
          "name": "_chainId",
          "type": "uint16"
        },
        {
          "internalType": "address",
          "name": "",
          "type": "address"
        },
        {
          "internalType": "uint256",
          "name": "_configType",
          "type": "uint256"
        }
      ],
      "name": "getConfig",
      "outputs": [
        {
          "internalType": "bytes",
          "name": "",
          "type": "bytes"
        }
      ],
      "stateMutability": "view",
      "type": "function"
    },
    {
      "inputs": [],
      "name": "getReceiveVersion",
      "outputs": [
        {
          "internalType": "uint16",
          "name": "",
          "type": "uint16"
        }
      ],
      "stateMutability": "view",
      "type": "function"
    },
    {
      "inputs": [],
      "name": "getSendVersion",
      "outputs": [
        {
          "internalType": "uint16",
          "name": "",
          "type": "uint16"
        }
      ],
      "stateMutability": "view",
      "type": "function"
    },
    {
      "inputs": [
        {
          "internalType": "uint16",
          "name": "_srcChainId",
          "type": "uint16"
        },
        {
          "internalType": "bytes",
          "name": "_srcAddress",
          "type": "bytes"
        },
        {
          "internalType": "uint64",
          "name": "",
          "type": "uint64"
        },
        {
          "internalType": "bytes",
          "name": "_payload",
          "type": "bytes"
        }
      ],
      "name": "lzReceive",
      "outputs": [],
      "stateMutability": "nonpayable",
      "type": "function"
    },
    {
      "inputs": [],
      "name": "owner",
      "outputs": [
        {
          "internalType": "address",
          "name": "",
          "type": "address"
        }
      ],
      "stateMutability": "view",
      "type": "function"
    },
    {
      "inputs": [
        {
          "internalType": "uint16",
          "name": "",
          "type": "uint16"
        }
      ],
      "name": "remotes",
      "outputs": [
        {
          "internalType": "bytes",
          "name": "",
          "type": "bytes"
        }
      ],
      "stateMutability": "view",
      "type": "function"
    },
    {
      "inputs": [],
      "name": "renounceOwnership",
      "outputs": [],
      "stateMutability": "nonpayable",
      "type": "function"
    },
    {
      "inputs": [
        {
          "internalType": "address",
          "name": "contractAddress",
          "type": "address"
        }
      ],
      "name": "revokeBridge",
      "outputs": [],
      "stateMutability": "nonpayable",
      "type": "function"
    },
    {
      "inputs": [
        {
          "internalType": "uint16",
          "name": "_dstChainId",
          "type": "uint16"
        },
        {
          "internalType": "bytes",
          "name": "_dstContractAddress",
          "type": "bytes"
        },
        {
          "internalType": "address",
          "name": "_user",
          "type": "address"
        },
        {
          "internalType": "uint256",
          "name": "IDs",
          "type": "uint256"
        },
        {
          "internalType": "uint256",
          "name": "_nonce",
          "type": "uint256"
        },
        {
          "internalType": "uint256",
          "name": "_amount",
          "type": "uint256"
        },
        {
          "internalType": "address",
          "name": "_mainAddress",
          "type": "address"
        },
        {
          "internalType": "string",
          "name": "_name",
          "type": "string"
        },
        {
          "internalType": "string",
          "name": "_symbol",
          "type": "string"
        }
      ],
      "name": "sendTxInfo",
      "outputs": [],
      "stateMutability": "payable",
      "type": "function"
    },
    {
      "inputs": [
        {
          "internalType": "uint16",
          "name": "",
          "type": "uint16"
        },
        {
          "internalType": "uint16",
          "name": "_chainId",
          "type": "uint16"
        },
        {
          "internalType": "uint256",
          "name": "_configType",
          "type": "uint256"
        },
        {
          "internalType": "bytes",
          "name": "_config",
          "type": "bytes"
        }
      ],
      "name": "setConfig",
      "outputs": [],
      "stateMutability": "nonpayable",
      "type": "function"
    },
    {
      "inputs": [
        {
          "internalType": "uint16",
          "name": "remoteChainId",
          "type": "uint16"
        },
        {
          "internalType": "uint16",
          "name": "confirmations",
          "type": "uint16"
        }
      ],
      "name": "setInboundConfirmations",
      "outputs": [],
      "stateMutability": "nonpayable",
      "type": "function"
    },
    {
      "inputs": [
        {
          "internalType": "uint16",
          "name": "dstChainId",
          "type": "uint16"
        },
        {
          "internalType": "address",
          "name": "oracle",
          "type": "address"
        }
      ],
      "name": "setOracle",
      "outputs": [],
      "stateMutability": "nonpayable",
      "type": "function"
    },
    {
      "inputs": [
        {
          "internalType": "uint16",
          "name": "remoteChainId",
          "type": "uint16"
        },
        {
          "internalType": "uint16",
          "name": "confirmations",
          "type": "uint16"
        }
      ],
      "name": "setOutboundConfirmations",
      "outputs": [],
      "stateMutability": "nonpayable",
      "type": "function"
    },
    {
      "inputs": [
        {
          "internalType": "uint16",
          "name": "version",
          "type": "uint16"
        }
      ],
      "name": "setReceiveVersion",
      "outputs": [],
      "stateMutability": "nonpayable",
      "type": "function"
    },
    {
      "inputs": [
        {
          "internalType": "uint16",
          "name": "_chainId",
          "type": "uint16"
        },
        {
          "internalType": "bytes",
          "name": "_remoteAddress",
          "type": "bytes"
        }
      ],
      "name": "setRemote",
      "outputs": [],
      "stateMutability": "nonpayable",
      "type": "function"
    },
    {
      "inputs": [
        {
          "internalType": "uint16",
          "name": "version",
          "type": "uint16"
        }
      ],
      "name": "setSendVersion",
      "outputs": [],
      "stateMutability": "nonpayable",
      "type": "function"
    },
    {
      "inputs": [
        {
          "internalType": "address",
          "name": "newOwner",
          "type": "address"
        }
      ],
      "name": "transferOwnership",
      "outputs": [],
      "stateMutability": "nonpayable",
      "type": "function"
    },
    {
      "inputs": [
        {
          "internalType": "address",
          "name": "",
          "type": "address"
        }
      ],
      "name": "txs",
      "outputs": [
        {
          "internalType": "address",
          "name": "user",
          "type": "address"
        },
        {
          "internalType": "address",
          "name": "mainAddress",
          "type": "address"
        },
        {
          "internalType": "uint256",
          "name": "IDs",
          "type": "uint256"
        },
        {
          "internalType": "uint256",
          "name": "nonce",
          "type": "uint256"
        },
        {
          "internalType": "uint256",
          "name": "amount",
          "type": "uint256"
        },
        {
          "internalType": "string",
          "name": "name",
          "type": "string"
        },
        {
          "internalType": "string",
          "name": "symbol",
          "type": "string"
        }
      ],
      "stateMutability": "view",
      "type": "function"
    },
    {
      "stateMutability": "payable",
      "type": "receive"
    }
  ],
  "bytecode": "0x60806040523480156200001157600080fd5b50604051620031093803806200310983398181016040528101906200003791906200022c565b620000576200004b620000f660201b60201c565b620000fe60201b60201c565b80600360006101000a81548173ffffffffffffffffffffffffffffffffffffffff021916908373ffffffffffffffffffffffffffffffffffffffff16021790555060018060003373ffffffffffffffffffffffffffffffffffffffff1673ffffffffffffffffffffffffffffffffffffffff16815260200190815260200160002060006101000a81548160ff021916908315150217905550506200025e565b600033905090565b60008060009054906101000a900473ffffffffffffffffffffffffffffffffffffffff169050816000806101000a81548173ffffffffffffffffffffffffffffffffffffffff021916908373ffffffffffffffffffffffffffffffffffffffff1602179055508173ffffffffffffffffffffffffffffffffffffffff168173ffffffffffffffffffffffffffffffffffffffff167f8be0079c531659141344cd1fd0a4f28419497f9722a3daafe3b4186f6b6457e060405160405180910390a35050565b600080fd5b600073ffffffffffffffffffffffffffffffffffffffff82169050919050565b6000620001f482620001c7565b9050919050565b6200020681620001e7565b81146200021257600080fd5b50565b6000815190506200022681620001fb565b92915050565b600060208284031215620002455762000244620001c2565b5b6000620002558482850162000215565b91505092915050565b612e9b806200026e6000396000f3fe6080604052600436106101385760003560e01c80635e280f11116100ab578063cbed8b9c1161006f578063cbed8b9c146103e6578063cf5d14711461040f578063d63a8e111461043a578063d837c24614610477578063f2fde38b146104a0578063f5ecbdbc146104c95761013f565b80635e280f11146103135780636df653711461033e578063715018a6146103675780638da5cb5b1461037e5780639d1f6113146103a95761013f565b806342d65a8d116100fd57806342d65a8d1461020e5780634910b86114610237578063492e527e146102605780634eaa1b87146102895780634f881ee3146102cc57806354a5beda146102e85761013f565b80621d35671461014157806307e0db171461016a57806310ddb1371461019357806320cdd0a1146101bc5780632b2257dc146101e55761013f565b3661013f57005b005b34801561014d57600080fd5b5061016860048036038101906101639190611cd6565b610506565b005b34801561017657600080fd5b50610191600480360381019061018c9190611d75565b6107cc565b005b34801561019f57600080fd5b506101ba60048036038101906101b59190611d75565b61085c565b005b3480156101c857600080fd5b506101e360048036038101906101de9190611e02565b6108ec565b005b3480156101f157600080fd5b5061020c60048036038101906102079190611e62565b610a02565b005b34801561021a57600080fd5b5061023560048036038101906102309190611e02565b610b54565b005b34801561024357600080fd5b5061025e60048036038101906102599190611f00565b610b59565b005b34801561026c57600080fd5b5061028760048036038101906102829190611f2d565b610c2f565b005b34801561029557600080fd5b506102b060048036038101906102ab9190611f00565b610d87565b6040516102c3979695949392919061201d565b60405180910390f35b6102e660048036038101906102e19190612167565b610f19565b005b3480156102f457600080fd5b506102fd61108c565b60405161030a9190612299565b60405180910390f35b34801561031f57600080fd5b5061032861112f565b6040516103359190612313565b60405180910390f35b34801561034a57600080fd5b5061036560048036038101906103609190611e62565b611155565b005b34801561037357600080fd5b5061037c6112a7565b005b34801561038a57600080fd5b5061039361132f565b6040516103a0919061232e565b60405180910390f35b3480156103b557600080fd5b506103d060048036038101906103cb9190611d75565b611358565b6040516103dd919061239e565b60405180910390f35b3480156103f257600080fd5b5061040d600480360381019061040891906123c0565b6113f8565b005b34801561041b57600080fd5b5061042461152f565b6040516104319190612299565b60405180910390f35b34801561044657600080fd5b50610461600480360381019061045c9190611f00565b6115d2565b60405161046e9190612463565b60405180910390f35b34801561048357600080fd5b5061049e60048036038101906104999190611f00565b6115f2565b005b3480156104ac57600080fd5b506104c760048036038101906104c29190611f00565b6116c8565b005b3480156104d557600080fd5b506104f060048036038101906104eb919061247e565b6117bf565b6040516104fd919061239e565b60405180910390f35b600360009054906101000a900473ffffffffffffffffffffffffffffffffffffffff1673ffffffffffffffffffffffffffffffffffffffff163373ffffffffffffffffffffffffffffffffffffffff161461056057600080fd5b600460008561ffff1661ffff168152602001908152602001600020805461058690612514565b905083511480156105cc5750600460008561ffff1661ffff1681526020019081526020016000206040516105ba91906125e4565b60405180910390208380519060200120145b61060b576040517f08c379a000000000000000000000000000000000000000000000000000000000815260040161060290612693565b60405180910390fd5b60008060008060008060008780602001905181019061062a9190612776565b96509650965096509650965096506040518060e001604052808873ffffffffffffffffffffffffffffffffffffffff1681526020018473ffffffffffffffffffffffffffffffffffffffff16815260200187815260200186815260200185815260200183815260200182815250600260008973ffffffffffffffffffffffffffffffffffffffff1673ffffffffffffffffffffffffffffffffffffffff16815260200190815260200160002060008201518160000160006101000a81548173ffffffffffffffffffffffffffffffffffffffff021916908373ffffffffffffffffffffffffffffffffffffffff16021790555060208201518160010160006101000a81548173ffffffffffffffffffffffffffffffffffffffff021916908373ffffffffffffffffffffffffffffffffffffffff16021790555060408201518160020155606082015181600301556080820151816004015560a082015181600501908051906020019061079e9291906119d9565b5060c08201518160060190805190602001906107bb9291906119d9565b509050505050505050505050505050565b600360009054906101000a900473ffffffffffffffffffffffffffffffffffffffff1673ffffffffffffffffffffffffffffffffffffffff166307e0db17826040518263ffffffff1660e01b81526004016108279190612299565b600060405180830381600087803b15801561084157600080fd5b505af1158015610855573d6000803e3d6000fd5b5050505050565b600360009054906101000a900473ffffffffffffffffffffffffffffffffffffffff1673ffffffffffffffffffffffffffffffffffffffff166310ddb137826040518263ffffffff1660e01b81526004016108b79190612299565b600060405180830381600087803b1580156108d157600080fd5b505af11580156108e5573d6000803e3d6000fd5b5050505050565b6108f461190d565b73ffffffffffffffffffffffffffffffffffffffff1661091261132f565b73ffffffffffffffffffffffffffffffffffffffff1614610968576040517f08c379a000000000000000000000000000000000000000000000000000000000815260040161095f9061289c565b60405180910390fd5b6000600460008561ffff1661ffff168152602001908152602001600020805461099090612514565b9050146109d2576040517f08c379a00000000000000000000000000000000000000000000000000000000081526004016109c99061292e565b60405180910390fd5b8181600460008661ffff1661ffff16815260200190815260200160002091906109fc929190611a5f565b50505050565b600360009054906101000a900473ffffffffffffffffffffffffffffffffffffffff1673ffffffffffffffffffffffffffffffffffffffff1663cbed8b9c600360009054906101000a900473ffffffffffffffffffffffffffffffffffffffff1673ffffffffffffffffffffffffffffffffffffffff1663096568f6306040518263ffffffff1660e01b8152600401610a9b919061232e565b602060405180830381865afa158015610ab8573d6000803e3d6000fd5b505050506040513d601f19601f82011682018060405250810190610adc9190612963565b84600585604051602001610af09190612299565b6040516020818303038152906040526040518563ffffffff1660e01b8152600401610b1e94939291906129cb565b600060405180830381600087803b158015610b3857600080fd5b505af1158015610b4c573d6000803e3d6000fd5b505050505050565b505050565b610b6161190d565b73ffffffffffffffffffffffffffffffffffffffff16610b7f61132f565b73ffffffffffffffffffffffffffffffffffffffff1614610bd5576040517f08c379a0000000000000000000000000000000000000000000000000000000008152600401610bcc9061289c565b60405180910390fd5b60018060008373ffffffffffffffffffffffffffffffffffffffff1673ffffffffffffffffffffffffffffffffffffffff16815260200190815260200160002060006101000a81548160ff02191690831515021790555050565b600060069050600360009054906101000a900473ffffffffffffffffffffffffffffffffffffffff1673ffffffffffffffffffffffffffffffffffffffff1663cbed8b9c600360009054906101000a900473ffffffffffffffffffffffffffffffffffffffff1673ffffffffffffffffffffffffffffffffffffffff1663096568f6306040518263ffffffff1660e01b8152600401610cce919061232e565b602060405180830381865afa158015610ceb573d6000803e3d6000fd5b505050506040513d601f19601f82011682018060405250810190610d0f9190612963565b858486604051602001610d22919061232e565b6040516020818303038152906040526040518563ffffffff1660e01b8152600401610d509493929190612a17565b600060405180830381600087803b158015610d6a57600080fd5b505af1158015610d7e573d6000803e3d6000fd5b50505050505050565b60026020528060005260406000206000915090508060000160009054906101000a900473ffffffffffffffffffffffffffffffffffffffff16908060010160009054906101000a900473ffffffffffffffffffffffffffffffffffffffff1690806002015490806003015490806004015490806005018054610e0890612514565b80601f0160208091040260200160405190810160405280929190818152602001828054610e3490612514565b8015610e815780601f10610e5657610100808354040283529160200191610e81565b820191906000526020600020905b815481529060010190602001808311610e6457829003601f168201915b505050505090806006018054610e9690612514565b80601f0160208091040260200160405190810160405280929190818152602001828054610ec290612514565b8015610f0f5780601f10610ee457610100808354040283529160200191610f0f565b820191906000526020600020905b815481529060010190602001808311610ef257829003601f168201915b5050505050905087565b600160003373ffffffffffffffffffffffffffffffffffffffff1673ffffffffffffffffffffffffffffffffffffffff16815260200190815260200160002060009054906101000a900460ff16610fa5576040517f08c379a0000000000000000000000000000000000000000000000000000000008152600401610f9c90612aaf565b60405180910390fd5b600087878787878787604051602001610fc49796959493929190612acf565b6040516020818303038152906040529050600360009054906101000a900473ffffffffffffffffffffffffffffffffffffffff1673ffffffffffffffffffffffffffffffffffffffff1663c5803100348d8d8d86336000604051806020016040528060008152506040518963ffffffff1660e01b815260040161104d9796959493929190612b88565b6000604051808303818588803b15801561106657600080fd5b505af115801561107a573d6000803e3d6000fd5b50505050505050505050505050505050565b6000600360009054906101000a900473ffffffffffffffffffffffffffffffffffffffff1673ffffffffffffffffffffffffffffffffffffffff1663096568f6306040518263ffffffff1660e01b81526004016110e9919061232e565b602060405180830381865afa158015611106573d6000803e3d6000fd5b505050506040513d601f19601f8201168201806040525081019061112a9190612963565b905090565b600360009054906101000a900473ffffffffffffffffffffffffffffffffffffffff1681565b600360009054906101000a900473ffffffffffffffffffffffffffffffffffffffff1673ffffffffffffffffffffffffffffffffffffffff1663cbed8b9c600360009054906101000a900473ffffffffffffffffffffffffffffffffffffffff1673ffffffffffffffffffffffffffffffffffffffff1663096568f6306040518263ffffffff1660e01b81526004016111ee919061232e565b602060405180830381865afa15801561120b573d6000803e3d6000fd5b505050506040513d601f19601f8201168201806040525081019061122f9190612963565b846002856040516020016112439190612299565b6040516020818303038152906040526040518563ffffffff1660e01b81526004016112719493929190612c3b565b600060405180830381600087803b15801561128b57600080fd5b505af115801561129f573d6000803e3d6000fd5b505050505050565b6112af61190d565b73ffffffffffffffffffffffffffffffffffffffff166112cd61132f565b73ffffffffffffffffffffffffffffffffffffffff1614611323576040517f08c379a000000000000000000000000000000000000000000000000000000000815260040161131a9061289c565b60405180910390fd5b61132d6000611915565b565b60008060009054906101000a900473ffffffffffffffffffffffffffffffffffffffff16905090565b6004602052806000526040600020600091509050805461137790612514565b80601f01602080910402602001604051908101604052809291908181526020018280546113a390612514565b80156113f05780601f106113c5576101008083540402835291602001916113f0565b820191906000526020600020905b8154815290600101906020018083116113d357829003601f168201915b505050505081565b600360009054906101000a900473ffffffffffffffffffffffffffffffffffffffff1673ffffffffffffffffffffffffffffffffffffffff1663cbed8b9c600360009054906101000a900473ffffffffffffffffffffffffffffffffffffffff1673ffffffffffffffffffffffffffffffffffffffff1663096568f6306040518263ffffffff1660e01b8152600401611491919061232e565b602060405180830381865afa1580156114ae573d6000803e3d6000fd5b505050506040513d601f19601f820116820180604052508101906114d29190612963565b868686866040518663ffffffff1660e01b81526004016114f6959493929190612c87565b600060405180830381600087803b15801561151057600080fd5b505af1158015611524573d6000803e3d6000fd5b505050505050505050565b6000600360009054906101000a900473ffffffffffffffffffffffffffffffffffffffff1673ffffffffffffffffffffffffffffffffffffffff1663da1a7c9a306040518263ffffffff1660e01b815260040161158c919061232e565b602060405180830381865afa1580156115a9573d6000803e3d6000fd5b505050506040513d601f19601f820116820180604052508101906115cd9190612963565b905090565b60016020528060005260406000206000915054906101000a900460ff1681565b6115fa61190d565b73ffffffffffffffffffffffffffffffffffffffff1661161861132f565b73ffffffffffffffffffffffffffffffffffffffff161461166e576040517f08c379a00000000000000000000000000000000000000000000000000000000081526004016116659061289c565b60405180910390fd5b60018060008373ffffffffffffffffffffffffffffffffffffffff1673ffffffffffffffffffffffffffffffffffffffff16815260200190815260200160002060006101000a81548160ff02191690831515021790555050565b6116d061190d565b73ffffffffffffffffffffffffffffffffffffffff166116ee61132f565b73ffffffffffffffffffffffffffffffffffffffff1614611744576040517f08c379a000000000000000000000000000000000000000000000000000000000815260040161173b9061289c565b60405180910390fd5b600073ffffffffffffffffffffffffffffffffffffffff168173ffffffffffffffffffffffffffffffffffffffff16036117b3576040517f08c379a00000000000000000000000000000000000000000000000000000000081526004016117aa90612d47565b60405180910390fd5b6117bc81611915565b50565b6060600360009054906101000a900473ffffffffffffffffffffffffffffffffffffffff1673ffffffffffffffffffffffffffffffffffffffff1663f5ecbdbc600360009054906101000a900473ffffffffffffffffffffffffffffffffffffffff1673ffffffffffffffffffffffffffffffffffffffff1663096568f6306040518263ffffffff1660e01b815260040161185a919061232e565b602060405180830381865afa158015611877573d6000803e3d6000fd5b505050506040513d601f19601f8201168201806040525081019061189b9190612963565b8630866040518563ffffffff1660e01b81526004016118bd9493929190612d67565b600060405180830381865afa1580156118da573d6000803e3d6000fd5b505050506040513d6000823e3d601f19601f820116820180604052508101906119039190612e1c565b9050949350505050565b600033905090565b60008060009054906101000a900473ffffffffffffffffffffffffffffffffffffffff169050816000806101000a81548173ffffffffffffffffffffffffffffffffffffffff021916908373ffffffffffffffffffffffffffffffffffffffff1602179055508173ffffffffffffffffffffffffffffffffffffffff168173ffffffffffffffffffffffffffffffffffffffff167f8be0079c531659141344cd1fd0a4f28419497f9722a3daafe3b4186f6b6457e060405160405180910390a35050565b8280546119e590612514565b90600052602060002090601f016020900481019282611a075760008555611a4e565b82601f10611a2057805160ff1916838001178555611a4e565b82800160010185558215611a4e579182015b82811115611a4d578251825591602001919060010190611a32565b5b509050611a5b9190611ae5565b5090565b828054611a6b90612514565b90600052602060002090601f016020900481019282611a8d5760008555611ad4565b82601f10611aa657803560ff1916838001178555611ad4565b82800160010185558215611ad4579182015b82811115611ad3578235825591602001919060010190611ab8565b5b509050611ae19190611ae5565b5090565b5b80821115611afe576000816000905550600101611ae6565b5090565b6000604051905090565b600080fd5b600080fd5b600061ffff82169050919050565b611b2d81611b16565b8114611b3857600080fd5b50565b600081359050611b4a81611b24565b92915050565b600080fd5b600080fd5b6000601f19601f8301169050919050565b7f4e487b7100000000000000000000000000000000000000000000000000000000600052604160045260246000fd5b611ba382611b5a565b810181811067ffffffffffffffff82111715611bc257611bc1611b6b565b5b80604052505050565b6000611bd5611b02565b9050611be18282611b9a565b919050565b600067ffffffffffffffff821115611c0157611c00611b6b565b5b611c0a82611b5a565b9050602081019050919050565b82818337600083830152505050565b6000611c39611c3484611be6565b611bcb565b905082815260208101848484011115611c5557611c54611b55565b5b611c60848285611c17565b509392505050565b600082601f830112611c7d57611c7c611b50565b5b8135611c8d848260208601611c26565b91505092915050565b600067ffffffffffffffff82169050919050565b611cb381611c96565b8114611cbe57600080fd5b50565b600081359050611cd081611caa565b92915050565b60008060008060808587031215611cf057611cef611b0c565b5b6000611cfe87828801611b3b565b945050602085013567ffffffffffffffff811115611d1f57611d1e611b11565b5b611d2b87828801611c68565b9350506040611d3c87828801611cc1565b925050606085013567ffffffffffffffff811115611d5d57611d5c611b11565b5b611d6987828801611c68565b91505092959194509250565b600060208284031215611d8b57611d8a611b0c565b5b6000611d9984828501611b3b565b91505092915050565b600080fd5b600080fd5b60008083601f840112611dc257611dc1611b50565b5b8235905067ffffffffffffffff811115611ddf57611dde611da2565b5b602083019150836001820283011115611dfb57611dfa611da7565b5b9250929050565b600080600060408486031215611e1b57611e1a611b0c565b5b6000611e2986828701611b3b565b935050602084013567ffffffffffffffff811115611e4a57611e49611b11565b5b611e5686828701611dac565b92509250509250925092565b60008060408385031215611e7957611e78611b0c565b5b6000611e8785828601611b3b565b9250506020611e9885828601611b3b565b9150509250929050565b600073ffffffffffffffffffffffffffffffffffffffff82169050919050565b6000611ecd82611ea2565b9050919050565b611edd81611ec2565b8114611ee857600080fd5b50565b600081359050611efa81611ed4565b92915050565b600060208284031215611f1657611f15611b0c565b5b6000611f2484828501611eeb565b91505092915050565b60008060408385031215611f4457611f43611b0c565b5b6000611f5285828601611b3b565b9250506020611f6385828601611eeb565b9150509250929050565b611f7681611ec2565b82525050565b6000819050919050565b611f8f81611f7c565b82525050565b600081519050919050565b600082825260208201905092915050565b60005b83811015611fcf578082015181840152602081019050611fb4565b83811115611fde576000848401525b50505050565b6000611fef82611f95565b611ff98185611fa0565b9350612009818560208601611fb1565b61201281611b5a565b840191505092915050565b600060e082019050612032600083018a611f6d565b61203f6020830189611f6d565b61204c6040830188611f86565b6120596060830187611f86565b6120666080830186611f86565b81810360a08301526120788185611fe4565b905081810360c083015261208c8184611fe4565b905098975050505050505050565b6120a381611f7c565b81146120ae57600080fd5b50565b6000813590506120c08161209a565b92915050565b600067ffffffffffffffff8211156120e1576120e0611b6b565b5b6120ea82611b5a565b9050602081019050919050565b600061210a612105846120c6565b611bcb565b90508281526020810184848401111561212657612125611b55565b5b612131848285611c17565b509392505050565b600082601f83011261214e5761214d611b50565b5b813561215e8482602086016120f7565b91505092915050565b6000806000806000806000806000806101208b8d03121561218b5761218a611b0c565b5b60006121998d828e01611b3b565b9a505060208b013567ffffffffffffffff8111156121ba576121b9611b11565b5b6121c68d828e01611dac565b995099505060406121d98d828e01611eeb565b97505060606121ea8d828e016120b1565b96505060806121fb8d828e016120b1565b95505060a061220c8d828e016120b1565b94505060c061221d8d828e01611eeb565b93505060e08b013567ffffffffffffffff81111561223e5761223d611b11565b5b61224a8d828e01612139565b9250506101008b013567ffffffffffffffff81111561226c5761226b611b11565b5b6122788d828e01612139565b9150509295989b9194979a5092959850565b61229381611b16565b82525050565b60006020820190506122ae600083018461228a565b92915050565b6000819050919050565b60006122d96122d46122cf84611ea2565b6122b4565b611ea2565b9050919050565b60006122eb826122be565b9050919050565b60006122fd826122e0565b9050919050565b61230d816122f2565b82525050565b60006020820190506123286000830184612304565b92915050565b60006020820190506123436000830184611f6d565b92915050565b600081519050919050565b600082825260208201905092915050565b600061237082612349565b61237a8185612354565b935061238a818560208601611fb1565b61239381611b5a565b840191505092915050565b600060208201905081810360008301526123b88184612365565b905092915050565b6000806000806000608086880312156123dc576123db611b0c565b5b60006123ea88828901611b3b565b95505060206123fb88828901611b3b565b945050604061240c888289016120b1565b935050606086013567ffffffffffffffff81111561242d5761242c611b11565b5b61243988828901611dac565b92509250509295509295909350565b60008115159050919050565b61245d81612448565b82525050565b60006020820190506124786000830184612454565b92915050565b6000806000806080858703121561249857612497611b0c565b5b60006124a687828801611b3b565b94505060206124b787828801611b3b565b93505060406124c887828801611eeb565b92505060606124d9878288016120b1565b91505092959194509250565b7f4e487b7100000000000000000000000000000000000000000000000000000000600052602260045260246000fd5b6000600282049050600182168061252c57607f821691505b60208210810361253f5761253e6124e5565b5b50919050565b600081905092915050565b60008190508160005260206000209050919050565b6000815461257281612514565b61257c8186612545565b9450600182166000811461259757600181146125a8576125db565b60ff198316865281860193506125db565b6125b185612550565b60005b838110156125d3578154818901526001820191506020810190506125b4565b838801955050505b50505092915050565b60006125f08284612565565b915081905092915050565b7f496e76616c69642072656d6f74652073656e64657220616464726573732e206f60008201527f776e65722073686f756c642063616c6c2073657452656d6f7465282920746f2060208201527f656e61626c652072656d6f746520636f6e747261637400000000000000000000604082015250565b600061267d605683611fa0565b9150612688826125fb565b606082019050919050565b600060208201905081810360008301526126ac81612670565b9050919050565b60006126be82611ea2565b9050919050565b6126ce816126b3565b81146126d957600080fd5b50565b6000815190506126eb816126c5565b92915050565b6000815190506127008161209a565b92915050565b6000612719612714846120c6565b611bcb565b90508281526020810184848401111561273557612734611b55565b5b612740848285611fb1565b509392505050565b600082601f83011261275d5761275c611b50565b5b815161276d848260208601612706565b91505092915050565b600080600080600080600060e0888a03121561279557612794611b0c565b5b60006127a38a828b016126dc565b97505060206127b48a828b016126f1565b96505060406127c58a828b016126f1565b95505060606127d68a828b016126f1565b94505060806127e78a828b016126dc565b93505060a088015167ffffffffffffffff81111561280857612807611b11565b5b6128148a828b01612748565b92505060c088015167ffffffffffffffff81111561283557612834611b11565b5b6128418a828b01612748565b91505092959891949750929550565b7f4f776e61626c653a2063616c6c6572206973206e6f7420746865206f776e6572600082015250565b6000612886602083611fa0565b915061289182612850565b602082019050919050565b600060208201905081810360008301526128b581612879565b9050919050565b7f5468652072656d6f746520616464726573732068617320616c7265616479206260008201527f65656e2073657420666f722074686520636861696e4964210000000000000000602082015250565b6000612918603883611fa0565b9150612923826128bc565b604082019050919050565b600060208201905081810360008301526129478161290b565b9050919050565b60008151905061295d81611b24565b92915050565b60006020828403121561297957612978611b0c565b5b60006129878482850161294e565b91505092915050565b6000819050919050565b60006129b56129b06129ab84612990565b6122b4565b611f7c565b9050919050565b6129c58161299a565b82525050565b60006080820190506129e0600083018761228a565b6129ed602083018661228a565b6129fa60408301856129bc565b8181036060830152612a0c8184612365565b905095945050505050565b6000608082019050612a2c600083018761228a565b612a39602083018661228a565b612a466040830185611f86565b8181036060830152612a588184612365565b905095945050505050565b7f436f6e74726163742069736e277420616c6c6f77656400000000000000000000600082015250565b6000612a99601683611fa0565b9150612aa482612a63565b602082019050919050565b60006020820190508181036000830152612ac881612a8c565b9050919050565b600060e082019050612ae4600083018a611f6d565b612af16020830189611f86565b612afe6040830188611f86565b612b0b6060830187611f86565b612b186080830186611f6d565b81810360a0830152612b2a8185611fe4565b905081810360c0830152612b3e8184611fe4565b905098975050505050505050565b6000612b588385612354565b9350612b65838584611c17565b612b6e83611b5a565b840190509392505050565b612b82816126b3565b82525050565b600060c082019050612b9d600083018a61228a565b8181036020830152612bb081888a612b4c565b90508181036040830152612bc48187612365565b9050612bd36060830186612b79565b612be06080830185611f6d565b81810360a0830152612bf28184612365565b905098975050505050505050565b6000819050919050565b6000612c25612c20612c1b84612c00565b6122b4565b611f7c565b9050919050565b612c3581612c0a565b82525050565b6000608082019050612c50600083018761228a565b612c5d602083018661228a565b612c6a6040830185612c2c565b8181036060830152612c7c8184612365565b905095945050505050565b6000608082019050612c9c600083018861228a565b612ca9602083018761228a565b612cb66040830186611f86565b8181036060830152612cc9818486612b4c565b90509695505050505050565b7f4f776e61626c653a206e6577206f776e657220697320746865207a65726f206160008201527f6464726573730000000000000000000000000000000000000000000000000000602082015250565b6000612d31602683611fa0565b9150612d3c82612cd5565b604082019050919050565b60006020820190508181036000830152612d6081612d24565b9050919050565b6000608082019050612d7c600083018761228a565b612d89602083018661228a565b612d966040830185611f6d565b612da36060830184611f86565b95945050505050565b6000612dbf612dba84611be6565b611bcb565b905082815260208101848484011115612ddb57612dda611b55565b5b612de6848285611fb1565b509392505050565b600082601f830112612e0357612e02611b50565b5b8151612e13848260208601612dac565b91505092915050565b600060208284031215612e3257612e31611b0c565b5b600082015167ffffffffffffffff811115612e5057612e4f611b11565b5b612e5c84828501612dee565b9150509291505056fea264697066735822122053ef96205db7d039fbd4bb8f948ff81dcbcf8b8587e5e42c231af226d16450a564736f6c634300080d0033",
  "linkReferences": {},
  "deployedLinkReferences": {}
}