{
  "_format": "hh-sol-artifact-1",
  "contractName": "Octo20",
  "sourceName": "contracts/OctoBridge20.sol",
  "abi": [
    {
      "inputs": [
        {
          "internalType": "uint16",
          "name": "_chainID",
          "type": "uint16"
        },
        {
          "internalType": "address",
          "name": "_signer",
          "type": "address"
        }
      ],
      "stateMutability": "nonpayable",
      "type": "constructor"
    },
    {
      "anonymous": false,
      "inputs": [
        {
          "indexed": true,
          "internalType": "address",
          "name": "previousOwner",
          "type": "address"
        },
        {
          "indexed": true,
          "internalType": "address",
          "name": "newOwner",
          "type": "address"
        }
      ],
      "name": "OwnershipTransferred",
      "type": "event"
    },
    {
      "anonymous": false,
      "inputs": [
        {
          "indexed": true,
          "internalType": "address",
          "name": "_user",
          "type": "address"
        },
        {
          "indexed": false,
          "internalType": "uint16",
          "name": "_chain",
          "type": "uint16"
        },
        {
          "indexed": false,
          "internalType": "address",
          "name": "_tokenAddress",
          "type": "address"
        },
        {
          "indexed": false,
          "internalType": "uint256",
          "name": "_amount",
          "type": "uint256"
        }
      ],
      "name": "TokenClaimed",
      "type": "event"
    },
    {
      "anonymous": false,
      "inputs": [
        {
          "indexed": true,
          "internalType": "address",
          "name": "_user",
          "type": "address"
        },
        {
          "indexed": false,
          "internalType": "uint16",
          "name": "_chainID",
          "type": "uint16"
        },
        {
          "indexed": false,
          "internalType": "uint256",
          "name": "_nonce",
          "type": "uint256"
        },
        {
          "indexed": false,
          "internalType": "uint16",
          "name": "_destChainID",
          "type": "uint16"
        },
        {
          "indexed": false,
          "internalType": "uint256",
          "name": "_amount",
          "type": "uint256"
        },
        {
          "indexed": false,
          "internalType": "uint16",
          "name": "_originChainID",
          "type": "uint16"
        },
        {
          "indexed": false,
          "internalType": "address",
          "name": "_originAddress",
          "type": "address"
        }
      ],
      "name": "TokenLocked",
      "type": "event"
    },
    {
      "inputs": [
        {
          "internalType": "address",
          "name": "_newSigner",
          "type": "address"
        }
      ],
      "name": "changeSigner",
      "outputs": [],
      "stateMutability": "nonpayable",
      "type": "function"
    },
    {
      "inputs": [
        {
          "internalType": "uint16",
          "name": "_originChain",
          "type": "uint16"
        },
        {
          "internalType": "uint256",
          "name": "_nonce",
          "type": "uint256"
        },
        {
          "internalType": "uint16",
          "name": "_senderChain",
          "type": "uint16"
        },
        {
          "internalType": "address",
          "name": "_originAddress",
          "type": "address"
        },
        {
          "internalType": "uint256",
          "name": "_amount",
          "type": "uint256"
        },
        {
          "internalType": "bytes",
          "name": "_signature",
          "type": "bytes"
        },
        {
          "internalType": "string",
          "name": "_name",
          "type": "string"
        },
        {
          "internalType": "string",
          "name": "_symbol",
          "type": "string"
        }
      ],
      "name": "claim",
      "outputs": [],
      "stateMutability": "nonpayable",
      "type": "function"
    },
    {
      "inputs": [
        {
          "internalType": "bytes32",
          "name": "",
          "type": "bytes32"
        }
      ],
      "name": "initialized",
      "outputs": [
        {
          "internalType": "address",
          "name": "",
          "type": "address"
        }
      ],
      "stateMutability": "view",
      "type": "function"
    },
    {
      "inputs": [
        {
          "internalType": "address",
          "name": "_tokenAddress",
          "type": "address"
        }
      ],
      "name": "isOrigin",
      "outputs": [
        {
          "internalType": "bool",
          "name": "",
          "type": "bool"
        }
      ],
      "stateMutability": "view",
      "type": "function"
    },
    {
      "inputs": [
        {
          "internalType": "uint16",
          "name": "_originChain",
          "type": "uint16"
        },
        {
          "internalType": "uint16",
          "name": "_destination",
          "type": "uint16"
        },
        {
          "internalType": "address",
          "name": "_tokenAddress",
          "type": "address"
        },
        {
          "internalType": "uint256",
          "name": "_amount",
          "type": "uint256"
        }
      ],
      "name": "lock",
      "outputs": [],
      "stateMutability": "nonpayable",
      "type": "function"
    },
    {
      "inputs": [],
      "name": "owner",
      "outputs": [
        {
          "internalType": "address",
          "name": "",
          "type": "address"
        }
      ],
      "stateMutability": "view",
      "type": "function"
    },
    {
      "inputs": [],
      "name": "renounceOwnership",
      "outputs": [],
      "stateMutability": "nonpayable",
      "type": "function"
    },
    {
      "inputs": [],
      "name": "signer",
      "outputs": [
        {
          "internalType": "address",
          "name": "",
          "type": "address"
        }
      ],
      "stateMutability": "view",
      "type": "function"
    },
    {
      "inputs": [
        {
          "internalType": "address",
          "name": "",
          "type": "address"
        }
      ],
      "name": "tokens",
      "outputs": [
        {
          "internalType": "uint16",
          "name": "originChain",
          "type": "uint16"
        },
        {
          "internalType": "address",
          "name": "originAddress",
          "type": "address"
        },
        {
          "internalType": "uint256",
          "name": "lockedBalance",
          "type": "uint256"
        }
      ],
      "stateMutability": "view",
      "type": "function"
    },
    {
      "inputs": [
        {
          "internalType": "address",
          "name": "newOwner",
          "type": "address"
        }
      ],
      "name": "transferOwnership",
      "outputs": [],
      "stateMutability": "nonpayable",
      "type": "function"
    }
  ],
  "bytecode": "0x60a06040523480156200001157600080fd5b5060405162004e0938038062004e098339818101604052810190620000379190620001ad565b620000576200004b620000b360201b60201c565b620000bb60201b60201c565b8161ffff1660808161ffff1660f01b8152505080600160006101000a81548173ffffffffffffffffffffffffffffffffffffffff021916908373ffffffffffffffffffffffffffffffffffffffff160217905550505062000264565b600033905090565b60008060009054906101000a900473ffffffffffffffffffffffffffffffffffffffff169050816000806101000a81548173ffffffffffffffffffffffffffffffffffffffff021916908373ffffffffffffffffffffffffffffffffffffffff1602179055508173ffffffffffffffffffffffffffffffffffffffff168173ffffffffffffffffffffffffffffffffffffffff167f8be0079c531659141344cd1fd0a4f28419497f9722a3daafe3b4186f6b6457e060405160405180910390a35050565b600081519050620001908162000230565b92915050565b600081519050620001a7816200024a565b92915050565b60008060408385031215620001c157600080fd5b6000620001d18582860162000196565b9250506020620001e4858286016200017f565b9150509250929050565b6000620001fb8262000210565b9050919050565b600061ffff82169050919050565b600073ffffffffffffffffffffffffffffffffffffffff82169050919050565b6200023b81620001ee565b81146200024757600080fd5b50565b620002558162000202565b81146200026157600080fd5b50565b60805160f01c614b63620002a660003960008181610251015281816103eb015281816108ca01528181610af701528181610cca0152610f020152614b636000f3fe60806040523480156200001157600080fd5b5060043610620000ac5760003560e01c8063aad2b723116200006f578063aad2b7231462000157578063ac5555aa1462000177578063d8c4e7fb14620001ad578063e486033914620001cd578063f2fde38b146200020557620000ac565b8063238ac93314620000b157806352e42f7c14620000d3578063715018a614620000f35780638da5cb5b14620000ff578063a9bb5a2c1462000121575b600080fd5b620000bb62000225565b604051620000ca919062001f05565b60405180910390f35b620000f16004803603810190620000eb9190620019d2565b6200024b565b005b620000fd6200096c565b005b62000109620009fd565b60405162000118919062001f05565b60405180910390f35b6200013f6004803603810190620001399190620018e2565b62000a26565b6040516200014e919062001f8c565b60405180910390f35b6200017560048036038101906200016f9190620018e2565b62000b2c565b005b6200019560048036038101906200018f91906200193a565b62000bf3565b604051620001a4919062001f05565b60405180910390f35b620001cb6004803603810190620001c5919062001966565b62000c26565b005b620001eb6004803603810190620001e59190620018e2565b62000f8a565b604051620001fc93929190620021a7565b60405180910390f35b6200022360048036038101906200021d9190620018e2565b62000fe2565b005b600160009054906101000a900473ffffffffffffffffffffffffffffffffffffffff1681565b600033877f0000000000000000000000000000000000000000000000000000000000000000878c8c8b8989604051602001620002909998979695949392919062001dfe565b604051602081830303815290604052805190602001209050600160009054906101000a900473ffffffffffffffffffffffffffffffffffffffff1673ffffffffffffffffffffffffffffffffffffffff166200030085620002f184620010e6565b6200111890919063ffffffff16565b73ffffffffffffffffffffffffffffffffffffffff161462000359576040517f08c379a0000000000000000000000000000000000000000000000000000000008152600401620003509062002185565b60405180910390fd5b6005600082815260200190815260200160002060009054906101000a900460ff1615620003bd576040517f08c379a0000000000000000000000000000000000000000000000000000000008152600401620003b490620020b9565b60405180910390fd5b60016005600083815260200190815260200160002060006101000a81548160ff0219169083151502179055507f000000000000000000000000000000000000000000000000000000000000000061ffff168961ffff161415620005a6576000600360008873ffffffffffffffffffffffffffffffffffffffff1673ffffffffffffffffffffffffffffffffffffffff168152602001908152602001600020905060008790508682600101541015620004ac576040517f08c379a0000000000000000000000000000000000000000000000000000000008152600401620004a390620020db565b60405180910390fd5b86826001016000828254620004c291906200236a565b925050819055508073ffffffffffffffffffffffffffffffffffffffff1663a9059cbb33896040518363ffffffff1660e01b81526004016200050692919062001f5f565b602060405180830381600087803b1580156200052157600080fd5b505af115801562000536573d6000803e3d6000fd5b505050506040513d601f19601f820116820180604052508101906200055c91906200190e565b6200059e576040517f08c379a00000000000000000000000000000000000000000000000000000000081526004016200059590620020fd565b60405180910390fd5b505062000890565b6000600460008b89604051602001620005c192919062001ed5565b60405160208183030381529060405280519060200120815260200190815260200160002060009054906101000a900473ffffffffffffffffffffffffffffffffffffffff169050600073ffffffffffffffffffffffffffffffffffffffff168173ffffffffffffffffffffffffffffffffffffffff1614620006ba5760008190508073ffffffffffffffffffffffffffffffffffffffff166340c10f1933896040518363ffffffff1660e01b81526004016200067f92919062001f5f565b600060405180830381600087803b1580156200069a57600080fd5b505af1158015620006af573d6000803e3d6000fd5b50505050506200088e565b60008484604051620006cc906200177d565b620006d992919062001ff6565b604051809103906000f080158015620006f6573d6000803e3d6000fd5b5090508073ffffffffffffffffffffffffffffffffffffffff166340c10f1933896040518363ffffffff1660e01b81526004016200073692919062001f5f565b600060405180830381600087803b1580156200075157600080fd5b505af115801562000766573d6000803e3d6000fd5b5050505080600460008d8b6040516020016200078492919062001ed5565b60405160208183030381529060405280519060200120815260200190815260200160002060006101000a81548173ffffffffffffffffffffffffffffffffffffffff021916908373ffffffffffffffffffffffffffffffffffffffff1602179055506000600360008373ffffffffffffffffffffffffffffffffffffffff1673ffffffffffffffffffffffffffffffffffffffff16815260200190815260200160002090508b8160000160006101000a81548161ffff021916908361ffff160217905550888160000160026101000a81548173ffffffffffffffffffffffffffffffffffffffff021916908373ffffffffffffffffffffffffffffffffffffffff16021790555050505b505b3373ffffffffffffffffffffffffffffffffffffffff167f5954623944b60c2b01b9a93bb299519496d632417d1e7324f84a3ec1da5aae4a7f0000000000000000000000000000000000000000000000000000000000000000600460008d8b6040516020016200090292919062001ed5565b60405160208183030381529060405280519060200120815260200190815260200160002060009054906101000a900473ffffffffffffffffffffffffffffffffffffffff16886040516200095993929190620021a7565b60405180910390a2505050505050505050565b6200097662001143565b73ffffffffffffffffffffffffffffffffffffffff1662000996620009fd565b73ffffffffffffffffffffffffffffffffffffffff1614620009ef576040517f08c379a0000000000000000000000000000000000000000000000000000000008152600401620009e69062002141565b60405180910390fd5b620009fb60006200114b565b565b60008060009054906101000a900473ffffffffffffffffffffffffffffffffffffffff16905090565b600080600360008473ffffffffffffffffffffffffffffffffffffffff1673ffffffffffffffffffffffffffffffffffffffff1681526020019081526020016000206040518060600160405290816000820160009054906101000a900461ffff1661ffff1661ffff1681526020016000820160029054906101000a900473ffffffffffffffffffffffffffffffffffffffff1673ffffffffffffffffffffffffffffffffffffffff1673ffffffffffffffffffffffffffffffffffffffff16815260200160018201548152505090507f000000000000000000000000000000000000000000000000000000000000000061ffff16816000015161ffff1614915050919050565b62000b3662001143565b73ffffffffffffffffffffffffffffffffffffffff1662000b56620009fd565b73ffffffffffffffffffffffffffffffffffffffff161462000baf576040517f08c379a000000000000000000000000000000000000000000000000000000000815260040162000ba69062002141565b60405180910390fd5b80600160006101000a81548173ffffffffffffffffffffffffffffffffffffffff021916908373ffffffffffffffffffffffffffffffffffffffff16021790555050565b60046020528060005260406000206000915054906101000a900473ffffffffffffffffffffffffffffffffffffffff1681565b60008290506000600360008573ffffffffffffffffffffffffffffffffffffffff1673ffffffffffffffffffffffffffffffffffffffff1681526020019081526020016000209050600073ffffffffffffffffffffffffffffffffffffffff168160000160029054906101000a900473ffffffffffffffffffffffffffffffffffffffff1673ffffffffffffffffffffffffffffffffffffffff16141562000d4b577f00000000000000000000000000000000000000000000000000000000000000008160000160006101000a81548161ffff021916908361ffff160217905550838160000160026101000a81548173ffffffffffffffffffffffffffffffffffffffff021916908373ffffffffffffffffffffffffffffffffffffffff1602179055505b62000d568462000a26565b1562000e56578281600101600082825462000d7291906200230d565b925050819055508173ffffffffffffffffffffffffffffffffffffffff166323b872dd3330866040518463ffffffff1660e01b815260040162000db89392919062001f22565b602060405180830381600087803b15801562000dd357600080fd5b505af115801562000de8573d6000803e3d6000fd5b505050506040513d601f19601f8201168201806040525081019062000e0e91906200190e565b62000e50576040517f08c379a000000000000000000000000000000000000000000000000000000000815260040162000e479062002163565b60405180910390fd5b62000ec8565b8173ffffffffffffffffffffffffffffffffffffffff166379cc679033856040518363ffffffff1660e01b815260040162000e9392919062001f5f565b600060405180830381600087803b15801562000eae57600080fd5b505af115801562000ec3573d6000803e3d6000fd5b505050505b3373ffffffffffffffffffffffffffffffffffffffff167f2363ab5c438697822b315066b97306418b34540b5dfd4ec29e1672d5f7d403017f000000000000000000000000000000000000000000000000000000000000000060025488878b8760000160029054906101000a900473ffffffffffffffffffffffffffffffffffffffff1660405162000f6096959493929190620021e4565b60405180910390a26002600081548092919062000f7d906200248f565b9190505550505050505050565b60036020528060005260406000206000915090508060000160009054906101000a900461ffff16908060000160029054906101000a900473ffffffffffffffffffffffffffffffffffffffff16908060010154905083565b62000fec62001143565b73ffffffffffffffffffffffffffffffffffffffff166200100c620009fd565b73ffffffffffffffffffffffffffffffffffffffff161462001065576040517f08c379a00000000000000000000000000000000000000000000000000000000081526004016200105c9062002141565b60405180910390fd5b600073ffffffffffffffffffffffffffffffffffffffff168173ffffffffffffffffffffffffffffffffffffffff161415620010d8576040517f08c379a0000000000000000000000000000000000000000000000000000000008152600401620010cf9062002075565b60405180910390fd5b620010e3816200114b565b50565b600081604051602001620010fb919062001eab565b604051602081830303815290604052805190602001209050919050565b60008060006200112985856200120f565b9150915062001138816200129a565b819250505092915050565b600033905090565b60008060009054906101000a900473ffffffffffffffffffffffffffffffffffffffff169050816000806101000a81548173ffffffffffffffffffffffffffffffffffffffff021916908373ffffffffffffffffffffffffffffffffffffffff1602179055508173ffffffffffffffffffffffffffffffffffffffff168173ffffffffffffffffffffffffffffffffffffffff167f8be0079c531659141344cd1fd0a4f28419497f9722a3daafe3b4186f6b6457e060405160405180910390a35050565b600080604183511415620012555760008060006020860151925060408601519150606086015160001a9050620012488782858562001603565b9450945050505062001293565b6040835114156200128a5760008060208501519150604085015190506200127e8683836200171a565b93509350505062001293565b60006002915091505b9250929050565b60006004811115620012d5577f4e487b7100000000000000000000000000000000000000000000000000000000600052602160045260246000fd5b8160048111156200130f577f4e487b7100000000000000000000000000000000000000000000000000000000600052602160045260246000fd5b14156200131c5762001600565b6001600481111562001357577f4e487b7100000000000000000000000000000000000000000000000000000000600052602160045260246000fd5b81600481111562001391577f4e487b7100000000000000000000000000000000000000000000000000000000600052602160045260246000fd5b1415620013d5576040517f08c379a0000000000000000000000000000000000000000000000000000000008152600401620013cc9062002031565b60405180910390fd5b6002600481111562001410577f4e487b7100000000000000000000000000000000000000000000000000000000600052602160045260246000fd5b8160048111156200144a577f4e487b7100000000000000000000000000000000000000000000000000000000600052602160045260246000fd5b14156200148e576040517f08c379a0000000000000000000000000000000000000000000000000000000008152600401620014859062002053565b60405180910390fd5b60036004811115620014c9577f4e487b7100000000000000000000000000000000000000000000000000000000600052602160045260246000fd5b81600481111562001503577f4e487b7100000000000000000000000000000000000000000000000000000000600052602160045260246000fd5b141562001547576040517f08c379a00000000000000000000000000000000000000000000000000000000081526004016200153e9062002097565b60405180910390fd5b60048081111562001581577f4e487b7100000000000000000000000000000000000000000000000000000000600052602160045260246000fd5b816004811115620015bb577f4e487b7100000000000000000000000000000000000000000000000000000000600052602160045260246000fd5b1415620015ff576040517f08c379a0000000000000000000000000000000000000000000000000000000008152600401620015f6906200211f565b60405180910390fd5b5b50565b6000807f7fffffffffffffffffffffffffffffff5d576e7357a4501ddfe92f46681b20a08360001c11156200164057600060039150915062001711565b601b8560ff1614158015620016595750601c8560ff1614155b156200166d57600060049150915062001711565b60006001878787876040516000815260200160405260405162001694949392919062001fa9565b6020604051602081039080840390855afa158015620016b7573d6000803e3d6000fd5b505050602060405103519050600073ffffffffffffffffffffffffffffffffffffffff168173ffffffffffffffffffffffffffffffffffffffff161415620017085760006001925092505062001711565b80600092509250505b94509492505050565b60008060007f7fffffffffffffffffffffffffffffffffffffffffffffffffffffffffffffff60001b841690506000601b60ff8660001c901c6200175f91906200230d565b90506200176f8782888562001603565b935093505050935093915050565b612225806200290983390190565b6000620017a26200179c846200227a565b62002251565b905082815260208101848484011115620017bb57600080fd5b620017c884828562002414565b509392505050565b6000620017e7620017e184620022b0565b62002251565b9050828152602081018484840111156200180057600080fd5b6200180d84828562002414565b509392505050565b600081359050620018268162002886565b92915050565b6000815190506200183d81620028a0565b92915050565b6000813590506200185481620028ba565b92915050565b600082601f8301126200186c57600080fd5b81356200187e8482602086016200178b565b91505092915050565b600082601f8301126200189957600080fd5b8135620018ab848260208601620017d0565b91505092915050565b600081359050620018c581620028d4565b92915050565b600081359050620018dc81620028ee565b92915050565b600060208284031215620018f557600080fd5b6000620019058482850162001815565b91505092915050565b6000602082840312156200192157600080fd5b600062001931848285016200182c565b91505092915050565b6000602082840312156200194d57600080fd5b60006200195d8482850162001843565b91505092915050565b600080600080608085870312156200197d57600080fd5b60006200198d87828801620018b4565b9450506020620019a087828801620018b4565b9350506040620019b38782880162001815565b9250506060620019c687828801620018cb565b91505092959194509250565b600080600080600080600080610100898b031215620019f057600080fd5b600062001a008b828c01620018b4565b985050602062001a138b828c01620018cb565b975050604062001a268b828c01620018b4565b965050606062001a398b828c0162001815565b955050608062001a4c8b828c01620018cb565b94505060a089013567ffffffffffffffff81111562001a6a57600080fd5b62001a788b828c016200185a565b93505060c089013567ffffffffffffffff81111562001a9657600080fd5b62001aa48b828c0162001887565b92505060e089013567ffffffffffffffff81111562001ac257600080fd5b62001ad08b828c0162001887565b9150509295985092959890939650565b62001aeb81620023a5565b82525050565b62001b0662001b0082620023a5565b620024dd565b82525050565b62001b1781620023b9565b82525050565b62001b2881620023c5565b82525050565b62001b4362001b3d82620023c5565b620024f1565b82525050565b600062001b5682620022e6565b62001b628185620022f1565b935062001b7481856020860162002423565b62001b7f816200258b565b840191505092915050565b600062001b9782620022e6565b62001ba3818562002302565b935062001bb581856020860162002423565b80840191505092915050565b600062001bd0601883620022f1565b915062001bdd82620025b6565b602082019050919050565b600062001bf7601f83620022f1565b915062001c0482620025df565b602082019050919050565b600062001c1e601c8362002302565b915062001c2b8262002608565b601c82019050919050565b600062001c45602683620022f1565b915062001c528262002631565b604082019050919050565b600062001c6c602283620022f1565b915062001c798262002680565b604082019050919050565b600062001c93601883620022f1565b915062001ca082620026cf565b602082019050919050565b600062001cba601c83620022f1565b915062001cc782620026f8565b602082019050919050565b600062001ce1602583620022f1565b915062001cee8262002721565b604082019050919050565b600062001d08602283620022f1565b915062001d158262002770565b604082019050919050565b600062001d2f602083620022f1565b915062001d3c82620027bf565b602082019050919050565b600062001d56602383620022f1565b915062001d6382620027e8565b604082019050919050565b600062001d7d602283620022f1565b915062001d8a8262002837565b604082019050919050565b62001da081620023cf565b82525050565b62001dbb62001db582620023cf565b620024fb565b82525050565b62001dcc81620023fd565b82525050565b62001de762001de182620023fd565b62002523565b82525050565b62001df88162002407565b82525050565b600062001e0c828c62001af1565b60148201915062001e1e828b62001da6565b60028201915062001e30828a62001da6565b60028201915062001e42828962001dd2565b60208201915062001e54828862001da6565b60028201915062001e66828762001dd2565b60208201915062001e78828662001af1565b60148201915062001e8a828562001b8a565b915062001e98828462001b8a565b91508190509a9950505050505050505050565b600062001eb88262001c0f565b915062001ec6828462001b2e565b60208201915081905092915050565b600062001ee3828562001da6565b60028201915062001ef5828462001af1565b6014820191508190509392505050565b600060208201905062001f1c600083018462001ae0565b92915050565b600060608201905062001f39600083018662001ae0565b62001f48602083018562001ae0565b62001f57604083018462001dc1565b949350505050565b600060408201905062001f76600083018562001ae0565b62001f85602083018462001dc1565b9392505050565b600060208201905062001fa3600083018462001b0c565b92915050565b600060808201905062001fc0600083018762001b1d565b62001fcf602083018662001ded565b62001fde604083018562001b1d565b62001fed606083018462001b1d565b95945050505050565b6000604082019050818103600083015262002012818562001b49565b9050818103602083015262002028818462001b49565b90509392505050565b600060208201905081810360008301526200204c8162001bc1565b9050919050565b600060208201905081810360008301526200206e8162001be8565b9050919050565b60006020820190508181036000830152620020908162001c36565b9050919050565b60006020820190508181036000830152620020b28162001c5d565b9050919050565b60006020820190508181036000830152620020d48162001c84565b9050919050565b60006020820190508181036000830152620020f68162001cab565b9050919050565b60006020820190508181036000830152620021188162001cd2565b9050919050565b600060208201905081810360008301526200213a8162001cf9565b9050919050565b600060208201905081810360008301526200215c8162001d20565b9050919050565b600060208201905081810360008301526200217e8162001d47565b9050919050565b60006020820190508181036000830152620021a08162001d6e565b9050919050565b6000606082019050620021be600083018662001d95565b620021cd602083018562001ae0565b620021dc604083018462001dc1565b949350505050565b600060c082019050620021fb600083018962001d95565b6200220a602083018862001dc1565b62002219604083018762001d95565b62002228606083018662001dc1565b62002237608083018562001d95565b6200224660a083018462001ae0565b979650505050505050565b60006200225d62002270565b90506200226b828262002459565b919050565b6000604051905090565b600067ffffffffffffffff8211156200229857620022976200255c565b5b620022a3826200258b565b9050602081019050919050565b600067ffffffffffffffff821115620022ce57620022cd6200255c565b5b620022d9826200258b565b9050602081019050919050565b600081519050919050565b600082825260208201905092915050565b600081905092915050565b60006200231a82620023fd565b91506200232783620023fd565b9250827fffffffffffffffffffffffffffffffffffffffffffffffffffffffffffffffff038211156200235f576200235e6200252d565b5b828201905092915050565b60006200237782620023fd565b91506200238483620023fd565b9250828210156200239a57620023996200252d565b5b828203905092915050565b6000620023b282620023dd565b9050919050565b60008115159050919050565b6000819050919050565b600061ffff82169050919050565b600073ffffffffffffffffffffffffffffffffffffffff82169050919050565b6000819050919050565b600060ff82169050919050565b82818337600083830152505050565b60005b838110156200244357808201518184015260208101905062002426565b8381111562002453576000848401525b50505050565b62002464826200258b565b810181811067ffffffffffffffff821117156200248657620024856200255c565b5b80604052505050565b60006200249c82620023fd565b91507fffffffffffffffffffffffffffffffffffffffffffffffffffffffffffffffff821415620024d257620024d16200252d565b5b600182019050919050565b6000620024ea826200250f565b9050919050565b6000819050919050565b600062002508826200259c565b9050919050565b60006200251c82620025a9565b9050919050565b6000819050919050565b7f4e487b7100000000000000000000000000000000000000000000000000000000600052601160045260246000fd5b7f4e487b7100000000000000000000000000000000000000000000000000000000600052604160045260246000fd5b6000601f19601f8301169050919050565b60008160f01b9050919050565b60008160601b9050919050565b7f45434453413a20696e76616c6964207369676e61747572650000000000000000600082015250565b7f45434453413a20696e76616c6964207369676e6174757265206c656e67746800600082015250565b7f19457468657265756d205369676e6564204d6573736167653a0a333200000000600082015250565b7f4f776e61626c653a206e6577206f776e657220697320746865207a65726f206160008201527f6464726573730000000000000000000000000000000000000000000000000000602082015250565b7f45434453413a20696e76616c6964207369676e6174757265202773272076616c60008201527f7565000000000000000000000000000000000000000000000000000000000000602082015250565b7f5b636c61696d5d20416c726561647920636c61696d65642e0000000000000000600082015250565b7f5b636c61696d5d20546f6b656e206e6f7420617661696c61626c652e00000000600082015250565b7f5b6c6f636b65645d20556e7375636365737366756c20746f6b656e207472616e60008201527f736665722e000000000000000000000000000000000000000000000000000000602082015250565b7f45434453413a20696e76616c6964207369676e6174757265202776272076616c60008201527f7565000000000000000000000000000000000000000000000000000000000000602082015250565b7f4f776e61626c653a2063616c6c6572206973206e6f7420746865206f776e6572600082015250565b7f5b6c6f636b5d20556e7375636365737366756c20746f6b656e207472616e736660008201527f65722e0000000000000000000000000000000000000000000000000000000000602082015250565b7f5b636c61696d5d20436f756c646e277420766572696679207369676e6174757260008201527f652e000000000000000000000000000000000000000000000000000000000000602082015250565b6200289181620023a5565b81146200289d57600080fd5b50565b620028ab81620023b9565b8114620028b757600080fd5b50565b620028c581620023c5565b8114620028d157600080fd5b50565b620028df81620023cf565b8114620028eb57600080fd5b50565b620028f981620023fd565b81146200290557600080fd5b5056fe60806040523480156200001157600080fd5b506040516200222538038062002225833981810160405281019062000037919062000285565b818181600390805190602001906200005192919062000163565b5080600490805190602001906200006a92919062000163565b5050506200008d620000816200009560201b60201c565b6200009d60201b60201c565b505062000468565b600033905090565b6000600560009054906101000a900473ffffffffffffffffffffffffffffffffffffffff16905081600560006101000a81548173ffffffffffffffffffffffffffffffffffffffff021916908373ffffffffffffffffffffffffffffffffffffffff1602179055508173ffffffffffffffffffffffffffffffffffffffff168173ffffffffffffffffffffffffffffffffffffffff167f8be0079c531659141344cd1fd0a4f28419497f9722a3daafe3b4186f6b6457e060405160405180910390a35050565b82805462000171906200038d565b90600052602060002090601f016020900481019282620001955760008555620001e1565b82601f10620001b057805160ff1916838001178555620001e1565b82800160010185558215620001e1579182015b82811115620001e0578251825591602001919060010190620001c3565b5b509050620001f09190620001f4565b5090565b5b808211156200020f576000816000905550600101620001f5565b5090565b60006200022a620002248462000321565b620002f8565b9050828152602081018484840111156200024357600080fd5b6200025084828562000357565b509392505050565b600082601f8301126200026a57600080fd5b81516200027c84826020860162000213565b91505092915050565b600080604083850312156200029957600080fd5b600083015167ffffffffffffffff811115620002b457600080fd5b620002c28582860162000258565b925050602083015167ffffffffffffffff811115620002e057600080fd5b620002ee8582860162000258565b9150509250929050565b60006200030462000317565b9050620003128282620003c3565b919050565b6000604051905090565b600067ffffffffffffffff8211156200033f576200033e62000428565b5b6200034a8262000457565b9050602081019050919050565b60005b83811015620003775780820151818401526020810190506200035a565b8381111562000387576000848401525b50505050565b60006002820490506001821680620003a657607f821691505b60208210811415620003bd57620003bc620003f9565b5b50919050565b620003ce8262000457565b810181811067ffffffffffffffff82111715620003f057620003ef62000428565b5b80604052505050565b7f4e487b7100000000000000000000000000000000000000000000000000000000600052602260045260246000fd5b7f4e487b7100000000000000000000000000000000000000000000000000000000600052604160045260246000fd5b6000601f19601f8301169050919050565b611dad80620004786000396000f3fe608060405234801561001057600080fd5b506004361061010b5760003560e01c806370a08231116100a257806395d89b411161007157806395d89b41146102a6578063a457c2d7146102c4578063a9059cbb146102f4578063dd62ed3e14610324578063f2fde38b146103545761010b565b806370a0823114610232578063715018a61461026257806379cc67901461026c5780638da5cb5b146102885761010b565b8063313ce567116100de578063313ce567146101ac57806339509351146101ca57806340c10f19146101fa57806342966c68146102165761010b565b806306fdde0314610110578063095ea7b31461012e57806318160ddd1461015e57806323b872dd1461017c575b600080fd5b610118610370565b6040516101259190611660565b60405180910390f35b610148600480360381019061014391906113ac565b610402565b6040516101559190611645565b60405180910390f35b610166610425565b6040516101739190611802565b60405180910390f35b6101966004803603810190610191919061135d565b61042f565b6040516101a39190611645565b60405180910390f35b6101b461045e565b6040516101c1919061181d565b60405180910390f35b6101e460048036038101906101df91906113ac565b610467565b6040516101f19190611645565b60405180910390f35b610214600480360381019061020f91906113ac565b610511565b005b610230600480360381019061022b91906113e8565b61059b565b005b61024c600480360381019061024791906112f8565b6105af565b6040516102599190611802565b60405180910390f35b61026a6105f7565b005b610286600480360381019061028191906113ac565b61067f565b005b61029061069f565b60405161029d919061162a565b60405180910390f35b6102ae6106c9565b6040516102bb9190611660565b60405180910390f35b6102de60048036038101906102d991906113ac565b61075b565b6040516102eb9190611645565b60405180910390f35b61030e600480360381019061030991906113ac565b610845565b60405161031b9190611645565b60405180910390f35b61033e60048036038101906103399190611321565b610868565b60405161034b9190611802565b60405180910390f35b61036e600480360381019061036991906112f8565b6108ef565b005b60606003805461037f90611966565b80601f01602080910402602001604051908101604052809291908181526020018280546103ab90611966565b80156103f85780601f106103cd576101008083540402835291602001916103f8565b820191906000526020600020905b8154815290600101906020018083116103db57829003601f168201915b5050505050905090565b60008061040d6109e7565b905061041a8185856109ef565b600191505092915050565b6000600254905090565b60008061043a6109e7565b9050610447858285610bba565b610452858585610c46565b60019150509392505050565b60006012905090565b6000806104726109e7565b9050610506818585600160008673ffffffffffffffffffffffffffffffffffffffff1673ffffffffffffffffffffffffffffffffffffffff16815260200190815260200160002060008973ffffffffffffffffffffffffffffffffffffffff1673ffffffffffffffffffffffffffffffffffffffff168152602001908152602001600020546105019190611854565b6109ef565b600191505092915050565b6105196109e7565b73ffffffffffffffffffffffffffffffffffffffff1661053761069f565b73ffffffffffffffffffffffffffffffffffffffff161461058d576040517f08c379a000000000000000000000000000000000000000000000000000000000815260040161058490611742565b60405180910390fd5b6105978282610ec7565b5050565b6105ac6105a66109e7565b82611027565b50565b60008060008373ffffffffffffffffffffffffffffffffffffffff1673ffffffffffffffffffffffffffffffffffffffff168152602001908152602001600020549050919050565b6105ff6109e7565b73ffffffffffffffffffffffffffffffffffffffff1661061d61069f565b73ffffffffffffffffffffffffffffffffffffffff1614610673576040517f08c379a000000000000000000000000000000000000000000000000000000000815260040161066a90611742565b60405180910390fd5b61067d60006111fe565b565b6106918261068b6109e7565b83610bba565b61069b8282611027565b5050565b6000600560009054906101000a900473ffffffffffffffffffffffffffffffffffffffff16905090565b6060600480546106d890611966565b80601f016020809104026020016040519081016040528092919081815260200182805461070490611966565b80156107515780601f1061072657610100808354040283529160200191610751565b820191906000526020600020905b81548152906001019060200180831161073457829003601f168201915b5050505050905090565b6000806107666109e7565b90506000600160008373ffffffffffffffffffffffffffffffffffffffff1673ffffffffffffffffffffffffffffffffffffffff16815260200190815260200160002060008673ffffffffffffffffffffffffffffffffffffffff1673ffffffffffffffffffffffffffffffffffffffff1681526020019081526020016000205490508381101561082c576040517f08c379a0000000000000000000000000000000000000000000000000000000008152600401610823906117c2565b60405180910390fd5b61083982868684036109ef565b60019250505092915050565b6000806108506109e7565b905061085d818585610c46565b600191505092915050565b6000600160008473ffffffffffffffffffffffffffffffffffffffff1673ffffffffffffffffffffffffffffffffffffffff16815260200190815260200160002060008373ffffffffffffffffffffffffffffffffffffffff1673ffffffffffffffffffffffffffffffffffffffff16815260200190815260200160002054905092915050565b6108f76109e7565b73ffffffffffffffffffffffffffffffffffffffff1661091561069f565b73ffffffffffffffffffffffffffffffffffffffff161461096b576040517f08c379a000000000000000000000000000000000000000000000000000000000815260040161096290611742565b60405180910390fd5b600073ffffffffffffffffffffffffffffffffffffffff168173ffffffffffffffffffffffffffffffffffffffff1614156109db576040517f08c379a00000000000000000000000000000000000000000000000000000000081526004016109d2906116c2565b60405180910390fd5b6109e4816111fe565b50565b600033905090565b600073ffffffffffffffffffffffffffffffffffffffff168373ffffffffffffffffffffffffffffffffffffffff161415610a5f576040517f08c379a0000000000000000000000000000000000000000000000000000000008152600401610a56906117a2565b60405180910390fd5b600073ffffffffffffffffffffffffffffffffffffffff168273ffffffffffffffffffffffffffffffffffffffff161415610acf576040517f08c379a0000000000000000000000000000000000000000000000000000000008152600401610ac6906116e2565b60405180910390fd5b80600160008573ffffffffffffffffffffffffffffffffffffffff1673ffffffffffffffffffffffffffffffffffffffff16815260200190815260200160002060008473ffffffffffffffffffffffffffffffffffffffff1673ffffffffffffffffffffffffffffffffffffffff168152602001908152602001600020819055508173ffffffffffffffffffffffffffffffffffffffff168373ffffffffffffffffffffffffffffffffffffffff167f8c5be1e5ebec7d5bd14f71427d1e84f3dd0314c0f7b2291e5b200ac8c7c3b92583604051610bad9190611802565b60405180910390a3505050565b6000610bc68484610868565b90507fffffffffffffffffffffffffffffffffffffffffffffffffffffffffffffffff8114610c405781811015610c32576040517f08c379a0000000000000000000000000000000000000000000000000000000008152600401610c2990611702565b60405180910390fd5b610c3f84848484036109ef565b5b50505050565b600073ffffffffffffffffffffffffffffffffffffffff168373ffffffffffffffffffffffffffffffffffffffff161415610cb6576040517f08c379a0000000000000000000000000000000000000000000000000000000008152600401610cad90611782565b60405180910390fd5b600073ffffffffffffffffffffffffffffffffffffffff168273ffffffffffffffffffffffffffffffffffffffff161415610d26576040517f08c379a0000000000000000000000000000000000000000000000000000000008152600401610d1d90611682565b60405180910390fd5b610d318383836112c4565b60008060008573ffffffffffffffffffffffffffffffffffffffff1673ffffffffffffffffffffffffffffffffffffffff16815260200190815260200160002054905081811015610db7576040517f08c379a0000000000000000000000000000000000000000000000000000000008152600401610dae90611722565b60405180910390fd5b8181036000808673ffffffffffffffffffffffffffffffffffffffff1673ffffffffffffffffffffffffffffffffffffffff16815260200190815260200160002081905550816000808573ffffffffffffffffffffffffffffffffffffffff1673ffffffffffffffffffffffffffffffffffffffff1681526020019081526020016000206000828254610e4a9190611854565b925050819055508273ffffffffffffffffffffffffffffffffffffffff168473ffffffffffffffffffffffffffffffffffffffff167fddf252ad1be2c89b69c2b068fc378daa952ba7f163c4a11628f55a4df523b3ef84604051610eae9190611802565b60405180910390a3610ec18484846112c9565b50505050565b600073ffffffffffffffffffffffffffffffffffffffff168273ffffffffffffffffffffffffffffffffffffffff161415610f37576040517f08c379a0000000000000000000000000000000000000000000000000000000008152600401610f2e906117e2565b60405180910390fd5b610f43600083836112c4565b8060026000828254610f559190611854565b92505081905550806000808473ffffffffffffffffffffffffffffffffffffffff1673ffffffffffffffffffffffffffffffffffffffff1681526020019081526020016000206000828254610faa9190611854565b925050819055508173ffffffffffffffffffffffffffffffffffffffff16600073ffffffffffffffffffffffffffffffffffffffff167fddf252ad1be2c89b69c2b068fc378daa952ba7f163c4a11628f55a4df523b3ef8360405161100f9190611802565b60405180910390a3611023600083836112c9565b5050565b600073ffffffffffffffffffffffffffffffffffffffff168273ffffffffffffffffffffffffffffffffffffffff161415611097576040517f08c379a000000000000000000000000000000000000000000000000000000000815260040161108e90611762565b60405180910390fd5b6110a3826000836112c4565b60008060008473ffffffffffffffffffffffffffffffffffffffff1673ffffffffffffffffffffffffffffffffffffffff16815260200190815260200160002054905081811015611129576040517f08c379a0000000000000000000000000000000000000000000000000000000008152600401611120906116a2565b60405180910390fd5b8181036000808573ffffffffffffffffffffffffffffffffffffffff1673ffffffffffffffffffffffffffffffffffffffff16815260200190815260200160002081905550816002600082825461118091906118aa565b92505081905550600073ffffffffffffffffffffffffffffffffffffffff168373ffffffffffffffffffffffffffffffffffffffff167fddf252ad1be2c89b69c2b068fc378daa952ba7f163c4a11628f55a4df523b3ef846040516111e59190611802565b60405180910390a36111f9836000846112c9565b505050565b6000600560009054906101000a900473ffffffffffffffffffffffffffffffffffffffff16905081600560006101000a81548173ffffffffffffffffffffffffffffffffffffffff021916908373ffffffffffffffffffffffffffffffffffffffff1602179055508173ffffffffffffffffffffffffffffffffffffffff168173ffffffffffffffffffffffffffffffffffffffff167f8be0079c531659141344cd1fd0a4f28419497f9722a3daafe3b4186f6b6457e060405160405180910390a35050565b505050565b505050565b6000813590506112dd81611d49565b92915050565b6000813590506112f281611d60565b92915050565b60006020828403121561130a57600080fd5b6000611318848285016112ce565b91505092915050565b6000806040838503121561133457600080fd5b6000611342858286016112ce565b9250506020611353858286016112ce565b9150509250929050565b60008060006060848603121561137257600080fd5b6000611380868287016112ce565b9350506020611391868287016112ce565b92505060406113a2868287016112e3565b9150509250925092565b600080604083850312156113bf57600080fd5b60006113cd858286016112ce565b92505060206113de858286016112e3565b9150509250929050565b6000602082840312156113fa57600080fd5b6000611408848285016112e3565b91505092915050565b61141a816118de565b82525050565b611429816118f0565b82525050565b600061143a82611838565b6114448185611843565b9350611454818560208601611933565b61145d816119f6565b840191505092915050565b6000611475602383611843565b915061148082611a07565b604082019050919050565b6000611498602283611843565b91506114a382611a56565b604082019050919050565b60006114bb602683611843565b91506114c682611aa5565b604082019050919050565b60006114de602283611843565b91506114e982611af4565b604082019050919050565b6000611501601d83611843565b915061150c82611b43565b602082019050919050565b6000611524602683611843565b915061152f82611b6c565b604082019050919050565b6000611547602083611843565b915061155282611bbb565b602082019050919050565b600061156a602183611843565b915061157582611be4565b604082019050919050565b600061158d602583611843565b915061159882611c33565b604082019050919050565b60006115b0602483611843565b91506115bb82611c82565b604082019050919050565b60006115d3602583611843565b91506115de82611cd1565b604082019050919050565b60006115f6601f83611843565b915061160182611d20565b602082019050919050565b6116158161191c565b82525050565b61162481611926565b82525050565b600060208201905061163f6000830184611411565b92915050565b600060208201905061165a6000830184611420565b92915050565b6000602082019050818103600083015261167a818461142f565b905092915050565b6000602082019050818103600083015261169b81611468565b9050919050565b600060208201905081810360008301526116bb8161148b565b9050919050565b600060208201905081810360008301526116db816114ae565b9050919050565b600060208201905081810360008301526116fb816114d1565b9050919050565b6000602082019050818103600083015261171b816114f4565b9050919050565b6000602082019050818103600083015261173b81611517565b9050919050565b6000602082019050818103600083015261175b8161153a565b9050919050565b6000602082019050818103600083015261177b8161155d565b9050919050565b6000602082019050818103600083015261179b81611580565b9050919050565b600060208201905081810360008301526117bb816115a3565b9050919050565b600060208201905081810360008301526117db816115c6565b9050919050565b600060208201905081810360008301526117fb816115e9565b9050919050565b6000602082019050611817600083018461160c565b92915050565b6000602082019050611832600083018461161b565b92915050565b600081519050919050565b600082825260208201905092915050565b600061185f8261191c565b915061186a8361191c565b9250827fffffffffffffffffffffffffffffffffffffffffffffffffffffffffffffffff0382111561189f5761189e611998565b5b828201905092915050565b60006118b58261191c565b91506118c08361191c565b9250828210156118d3576118d2611998565b5b828203905092915050565b60006118e9826118fc565b9050919050565b60008115159050919050565b600073ffffffffffffffffffffffffffffffffffffffff82169050919050565b6000819050919050565b600060ff82169050919050565b60005b83811015611951578082015181840152602081019050611936565b83811115611960576000848401525b50505050565b6000600282049050600182168061197e57607f821691505b60208210811415611992576119916119c7565b5b50919050565b7f4e487b7100000000000000000000000000000000000000000000000000000000600052601160045260246000fd5b7f4e487b7100000000000000000000000000000000000000000000000000000000600052602260045260246000fd5b6000601f19601f8301169050919050565b7f45524332303a207472616e7366657220746f20746865207a65726f206164647260008201527f6573730000000000000000000000000000000000000000000000000000000000602082015250565b7f45524332303a206275726e20616d6f756e7420657863656564732062616c616e60008201527f6365000000000000000000000000000000000000000000000000000000000000602082015250565b7f4f776e61626c653a206e6577206f776e657220697320746865207a65726f206160008201527f6464726573730000000000000000000000000000000000000000000000000000602082015250565b7f45524332303a20617070726f766520746f20746865207a65726f20616464726560008201527f7373000000000000000000000000000000000000000000000000000000000000602082015250565b7f45524332303a20696e73756666696369656e7420616c6c6f77616e6365000000600082015250565b7f45524332303a207472616e7366657220616d6f756e742065786365656473206260008201527f616c616e63650000000000000000000000000000000000000000000000000000602082015250565b7f4f776e61626c653a2063616c6c6572206973206e6f7420746865206f776e6572600082015250565b7f45524332303a206275726e2066726f6d20746865207a65726f2061646472657360008201527f7300000000000000000000000000000000000000000000000000000000000000602082015250565b7f45524332303a207472616e736665722066726f6d20746865207a65726f20616460008201527f6472657373000000000000000000000000000000000000000000000000000000602082015250565b7f45524332303a20617070726f76652066726f6d20746865207a65726f2061646460008201527f7265737300000000000000000000000000000000000000000000000000000000602082015250565b7f45524332303a2064656372656173656420616c6c6f77616e63652062656c6f7760008201527f207a65726f000000000000000000000000000000000000000000000000000000602082015250565b7f45524332303a206d696e7420746f20746865207a65726f206164647265737300600082015250565b611d52816118de565b8114611d5d57600080fd5b50565b611d698161191c565b8114611d7457600080fd5b5056fea2646970667358221220401a7b7c2e95050180b6bb33034d68e616f7c99d86d98db5e490d813943ffd9664736f6c63430008020033a2646970667358221220fd4375ff2f9209d1d9a691ae0804b6c57f71205a16767ab4abace7ac020fd7d664736f6c63430008020033",
  "linkReferences": {},
  "deployedLinkReferences": {}
}