{
  "_format": "hh-sol-artifact-1",
  "contractName": "Octo20",
  "sourceName": "contracts/OctoBridge20.sol",
  "abi": [
    {
      "inputs": [
        {
          "internalType": "uint16",
          "name": "_chainID",
          "type": "uint16"
        },
        {
          "internalType": "address",
          "name": "_lz",
          "type": "address"
        }
      ],
      "stateMutability": "nonpayable",
      "type": "constructor"
    },
    {
      "stateMutability": "payable",
      "type": "fallback"
    },
    {
      "inputs": [],
      "name": "claim",
      "outputs": [],
      "stateMutability": "nonpayable",
      "type": "function"
    },
    {
      "inputs": [
        {
          "internalType": "bytes32",
          "name": "",
          "type": "bytes32"
        }
      ],
      "name": "initialized",
      "outputs": [
        {
          "internalType": "address",
          "name": "",
          "type": "address"
        }
      ],
      "stateMutability": "view",
      "type": "function"
    },
    {
      "inputs": [
        {
          "internalType": "address",
          "name": "_tokenAddress",
          "type": "address"
        }
      ],
      "name": "isOrigin",
      "outputs": [
        {
          "internalType": "bool",
          "name": "",
          "type": "bool"
        }
      ],
      "stateMutability": "view",
      "type": "function"
    },
    {
      "inputs": [
        {
          "internalType": "uint16",
          "name": "_originChain",
          "type": "uint16"
        },
        {
          "internalType": "uint16",
          "name": "_destination",
          "type": "uint16"
        },
        {
          "internalType": "uint16",
          "name": "_dstChainId",
          "type": "uint16"
        },
        {
          "internalType": "address",
          "name": "_tokenAddress",
          "type": "address"
        },
        {
          "internalType": "uint256",
          "name": "_amount",
          "type": "uint256"
        },
        {
          "internalType": "bytes",
          "name": "_dstRelayer",
          "type": "bytes"
        }
      ],
      "name": "lock",
      "outputs": [],
      "stateMutability": "payable",
      "type": "function"
    },
    {
      "inputs": [
        {
          "internalType": "address",
          "name": "",
          "type": "address"
        }
      ],
      "name": "tokens",
      "outputs": [
        {
          "internalType": "uint16",
          "name": "originChain",
          "type": "uint16"
        },
        {
          "internalType": "address",
          "name": "originAddress",
          "type": "address"
        },
        {
          "internalType": "uint256",
          "name": "lockedBalance",
          "type": "uint256"
        }
      ],
      "stateMutability": "view",
      "type": "function"
    },
    {
      "stateMutability": "payable",
      "type": "receive"
    }
  ],
  "bytecode": "0x60a06040523480156200001157600080fd5b50604051620042aa380380620042aa833981810160405281019062000037919062000139565b8161ffff1660808161ffff168152505080600160006101000a81548173ffffffffffffffffffffffffffffffffffffffff021916908373ffffffffffffffffffffffffffffffffffffffff160217905550505062000180565b600080fd5b600061ffff82169050919050565b620000ae8162000095565b8114620000ba57600080fd5b50565b600081519050620000ce81620000a3565b92915050565b600073ffffffffffffffffffffffffffffffffffffffff82169050919050565b60006200010182620000d4565b9050919050565b6200011381620000f4565b81146200011f57600080fd5b50565b600081519050620001338162000108565b92915050565b6000806040838503121562000153576200015262000090565b5b60006200016385828601620000bd565b9250506020620001768582860162000122565b9150509250929050565b6080516140f9620001b1600039600081816102b20152818161094901528181610b410152610e3801526140f96000f3fe608060405260043610620000555760003560e01c80634e71d92d146200005f5780639d0bfb101462000079578063a9bb5a2c1462000099578063ac5555aa14620000dd578063e48603391462000121576200005d565b366200005d57005b005b3480156200006c57600080fd5b506200007762000167565b005b62000097600480360381019062000091919062001067565b62000860565b005b348015620000a657600080fd5b50620000c56004803603810190620000bf919062001128565b62000d67565b604051620000d4919062001177565b60405180910390f35b348015620000ea57600080fd5b50620001096004803603810190620001039190620011cf565b62000e6d565b60405162000118919062001212565b60405180910390f35b3480156200012e57600080fd5b506200014d600480360381019062000147919062001128565b62000ea0565b6040516200015e9392919062001251565b60405180910390f35b6000600160009054906101000a900473ffffffffffffffffffffffffffffffffffffffff1673ffffffffffffffffffffffffffffffffffffffff16634eaa1b87336040518263ffffffff1660e01b8152600401620001c6919062001212565b6000604051808303816000875af1158015620001e6573d6000803e3d6000fd5b505050506040513d6000823e3d601f19601f820116820180604052508101906200021191906200154f565b905060008160800151146200025d576040517f08c379a0000000000000000000000000000000000000000000000000000000008152600401620002549062001601565b60405180910390fd5b60006d04ee2d6d415b85acef810000000082604001516200027f919062001681565b9050600082602001519050600083608001519050662386f26fc100008460400151620002ac9190620016b9565b61ffff167f000000000000000000000000000000000000000000000000000000000000000061ffff160362000457576000600260008473ffffffffffffffffffffffffffffffffffffffff1673ffffffffffffffffffffffffffffffffffffffff1681526020019081526020016000209050600083905082826001015410156200036d576040517f08c379a0000000000000000000000000000000000000000000000000000000008152600401620003649062001741565b60405180910390fd5b8282600101600082825462000383919062001763565b925050819055508073ffffffffffffffffffffffffffffffffffffffff1663a9059cbb33856040518363ffffffff1660e01b8152600401620003c79291906200179e565b6020604051808303816000875af1158015620003e7573d6000803e3d6000fd5b505050506040513d601f19601f820116820180604052508101906200040d9190620017fc565b6200044f576040517f08c379a00000000000000000000000000000000000000000000000000000000081526004016200044690620018a4565b60405180910390fd5b5050620007c9565b60006003600085856040516020016200047292919062001952565b60405160208183030381529060405280519060200120815260200190815260200160002060009054906101000a900473ffffffffffffffffffffffffffffffffffffffff169050600073ffffffffffffffffffffffffffffffffffffffff168173ffffffffffffffffffffffffffffffffffffffff16146200056b5760008190508073ffffffffffffffffffffffffffffffffffffffff166340c10f1933856040518363ffffffff1660e01b8152600401620005309291906200179e565b600060405180830381600087803b1580156200054b57600080fd5b505af115801562000560573d6000803e3d6000fd5b5050505050620007c7565b60008560a00151905060008660c0015190506d04ee2d6d415b85acef810000000087604001516200059d9190620016b9565b8661ffff1603620005f15781604051602001620005bb9190620019f5565b604051602081830303815290604052915080604051602001620005df919062001a45565b60405160208183030381529060405290505b60008282604051620006039062000ef8565b6200061092919062001ab0565b604051809103906000f0801580156200062d573d6000803e3d6000fd5b5090508073ffffffffffffffffffffffffffffffffffffffff166340c10f1933876040518363ffffffff1660e01b81526004016200066d9291906200179e565b600060405180830381600087803b1580156200068857600080fd5b505af11580156200069d573d6000803e3d6000fd5b5050505080600360008989604051602001620006bb92919062001952565b60405160208183030381529060405280519060200120815260200190815260200160002060006101000a81548173ffffffffffffffffffffffffffffffffffffffff021916908373ffffffffffffffffffffffffffffffffffffffff1602179055506000600260008373ffffffffffffffffffffffffffffffffffffffff1673ffffffffffffffffffffffffffffffffffffffff1681526020019081526020016000209050878160000160006101000a81548161ffff021916908361ffff160217905550868160000160026101000a81548173ffffffffffffffffffffffffffffffffffffffff021916908373ffffffffffffffffffffffffffffffffffffffff160217905550505050505b505b600160009054906101000a900473ffffffffffffffffffffffffffffffffffffffff1673ffffffffffffffffffffffffffffffffffffffff1663c99dee18336040518263ffffffff1660e01b815260040162000826919062001212565b600060405180830381600087803b1580156200084157600080fd5b505af115801562000856573d6000803e3d6000fd5b5050505050505050565b60008311620008a6576040517f08c379a00000000000000000000000000000000000000000000000000000000081526004016200089d9062001b61565b60405180910390fd5b60008490506000600260008773ffffffffffffffffffffffffffffffffffffffff1673ffffffffffffffffffffffffffffffffffffffff1681526020019081526020016000209050600073ffffffffffffffffffffffffffffffffffffffff168160000160029054906101000a900473ffffffffffffffffffffffffffffffffffffffff1673ffffffffffffffffffffffffffffffffffffffff1603620009ca577f00000000000000000000000000000000000000000000000000000000000000008160000160006101000a81548161ffff021916908361ffff160217905550858160000160026101000a81548173ffffffffffffffffffffffffffffffffffffffff021916908373ffffffffffffffffffffffffffffffffffffffff1602179055505b620009d58662000d67565b1562000ac55784816001016000828254620009f1919062001b83565b925050819055508173ffffffffffffffffffffffffffffffffffffffff166323b872dd3330886040518463ffffffff1660e01b815260040162000a379392919062001be0565b6020604051808303816000875af115801562000a57573d6000803e3d6000fd5b505050506040513d601f19601f8201168201806040525081019062000a7d9190620017fc565b62000abf576040517f08c379a000000000000000000000000000000000000000000000000000000000815260040162000ab69062001c93565b60405180910390fd5b62000b37565b8173ffffffffffffffffffffffffffffffffffffffff166379cc679033876040518363ffffffff1660e01b815260040162000b029291906200179e565b600060405180830381600087803b15801562000b1d57600080fd5b505af115801562000b32573d6000803e3d6000fd5b505050505b60006401000000007f000000000000000000000000000000000000000000000000000000000000000061ffff160264ffffffffff1681019050620100008961ffff160262ffffff16810190508961ffff1681019050600160009054906101000a900473ffffffffffffffffffffffffffffffffffffffff1673ffffffffffffffffffffffffffffffffffffffff16634f881ee3348a888833876000548e8b60000160029054906101000a900473ffffffffffffffffffffffffffffffffffffffff168d73ffffffffffffffffffffffffffffffffffffffff166306fdde036040518163ffffffff1660e01b8152600401600060405180830381865afa15801562000c45573d6000803e3d6000fd5b505050506040513d6000823e3d601f19601f8201168201806040525081019062000c70919062001cb5565b8e73ffffffffffffffffffffffffffffffffffffffff166395d89b416040518163ffffffff1660e01b8152600401600060405180830381865afa15801562000cbc573d6000803e3d6000fd5b505050506040513d6000823e3d601f19601f8201168201806040525081019062000ce7919062001cb5565b6040518c63ffffffff1660e01b815260040162000d0e9a9998979695949392919062001d59565b6000604051808303818588803b15801562000d2857600080fd5b505af115801562000d3d573d6000803e3d6000fd5b505050505060008081548092919062000d569062001e0f565b919050555050505050505050505050565b600080600260008473ffffffffffffffffffffffffffffffffffffffff1673ffffffffffffffffffffffffffffffffffffffff1681526020019081526020016000206040518060600160405290816000820160009054906101000a900461ffff1661ffff1661ffff1681526020016000820160029054906101000a900473ffffffffffffffffffffffffffffffffffffffff1673ffffffffffffffffffffffffffffffffffffffff1673ffffffffffffffffffffffffffffffffffffffff16815260200160018201548152505090507f000000000000000000000000000000000000000000000000000000000000000061ffff16816000015161ffff1614915050919050565b60036020528060005260406000206000915054906101000a900473ffffffffffffffffffffffffffffffffffffffff1681565b60026020528060005260406000206000915090508060000160009054906101000a900461ffff16908060000160029054906101000a900473ffffffffffffffffffffffffffffffffffffffff16908060010154905083565b6122678062001e5d83390190565b6000604051905090565b600080fd5b600080fd5b600061ffff82169050919050565b62000f338162000f1a565b811462000f3f57600080fd5b50565b60008135905062000f538162000f28565b92915050565b600073ffffffffffffffffffffffffffffffffffffffff82169050919050565b600062000f868262000f59565b9050919050565b62000f988162000f79565b811462000fa457600080fd5b50565b60008135905062000fb88162000f8d565b92915050565b6000819050919050565b62000fd38162000fbe565b811462000fdf57600080fd5b50565b60008135905062000ff38162000fc8565b92915050565b600080fd5b600080fd5b600080fd5b60008083601f84011262001021576200102062000ff9565b5b8235905067ffffffffffffffff81111562001041576200104062000ffe565b5b60208301915083600182028301111562001060576200105f62001003565b5b9250929050565b600080600080600080600060c0888a03121562001089576200108862000f10565b5b6000620010998a828b0162000f42565b9750506020620010ac8a828b0162000f42565b9650506040620010bf8a828b0162000f42565b9550506060620010d28a828b0162000fa7565b9450506080620010e58a828b0162000fe2565b93505060a088013567ffffffffffffffff81111562001109576200110862000f15565b5b620011178a828b0162001008565b925092505092959891949750929550565b60006020828403121562001141576200114062000f10565b5b6000620011518482850162000fa7565b91505092915050565b60008115159050919050565b62001171816200115a565b82525050565b60006020820190506200118e600083018462001166565b92915050565b6000819050919050565b620011a98162001194565b8114620011b557600080fd5b50565b600081359050620011c9816200119e565b92915050565b600060208284031215620011e857620011e762000f10565b5b6000620011f884828501620011b8565b91505092915050565b6200120c8162000f79565b82525050565b600060208201905062001229600083018462001201565b92915050565b6200123a8162000f1a565b82525050565b6200124b8162000fbe565b82525050565b60006060820190506200126860008301866200122f565b62001277602083018562001201565b62001286604083018462001240565b949350505050565b600080fd5b6000601f19601f8301169050919050565b7f4e487b7100000000000000000000000000000000000000000000000000000000600052604160045260246000fd5b620012de8262001293565b810181811067ffffffffffffffff821117156200130057620012ff620012a4565b5b80604052505050565b60006200131562000f06565b9050620013238282620012d3565b919050565b600080fd5b6000815190506200133e8162000f8d565b92915050565b600081519050620013558162000fc8565b92915050565b600080fd5b600067ffffffffffffffff8211156200137e576200137d620012a4565b5b620013898262001293565b9050602081019050919050565b60005b83811015620013b657808201518184015260208101905062001399565b83811115620013c6576000848401525b50505050565b6000620013e3620013dd8462001360565b62001309565b9050828152602081018484840111156200140257620014016200135b565b5b6200140f84828562001396565b509392505050565b600082601f8301126200142f576200142e62000ff9565b5b815162001441848260208601620013cc565b91505092915050565b600060e082840312156200146357620014626200128e565b5b6200146f60e062001309565b9050600062001481848285016200132d565b600083015250602062001497848285016200132d565b6020830152506040620014ad8482850162001344565b6040830152506060620014c38482850162001344565b6060830152506080620014d98482850162001344565b60808301525060a082015167ffffffffffffffff8111156200150057620014ff62001328565b5b6200150e8482850162001417565b60a08301525060c082015167ffffffffffffffff81111562001535576200153462001328565b5b620015438482850162001417565b60c08301525092915050565b60006020828403121562001568576200156762000f10565b5b600082015167ffffffffffffffff81111562001589576200158862000f15565b5b62001597848285016200144a565b91505092915050565b600082825260208201905092915050565b7f5b636c61696d5d20547820646f65736e27742065786973740000000000000000600082015250565b6000620015e9601883620015a0565b9150620015f682620015b1565b602082019050919050565b600060208201905081810360008301526200161c81620015da565b9050919050565b7f4e487b7100000000000000000000000000000000000000000000000000000000600052601260045260246000fd5b7f4e487b7100000000000000000000000000000000000000000000000000000000600052601160045260246000fd5b60006200168e8262000fbe565b91506200169b8362000fbe565b925082620016ae57620016ad62001623565b5b828204905092915050565b6000620016c68262000fbe565b9150620016d38362000fbe565b925082620016e657620016e562001623565b5b828206905092915050565b7f5b636c61696d5d20546f6b656e206e6f7420617661696c61626c650000000000600082015250565b600062001729601b83620015a0565b91506200173682620016f1565b602082019050919050565b600060208201905081810360008301526200175c816200171a565b9050919050565b6000620017708262000fbe565b91506200177d8362000fbe565b92508282101562001793576200179262001652565b5b828203905092915050565b6000604082019050620017b5600083018562001201565b620017c4602083018462001240565b9392505050565b620017d6816200115a565b8114620017e257600080fd5b50565b600081519050620017f681620017cb565b92915050565b60006020828403121562001815576200181462000f10565b5b60006200182584828501620017e5565b91505092915050565b7f5b636c61696d5d20556e7375636365737366756c20746f6b656e207472616e7360008201527f6665720000000000000000000000000000000000000000000000000000000000602082015250565b60006200188c602383620015a0565b915062001899826200182e565b604082019050919050565b60006020820190508181036000830152620018bf816200187d565b9050919050565b60008160f01b9050919050565b6000620018e082620018c6565b9050919050565b620018fc620018f68262000f1a565b620018d3565b82525050565b60008160601b9050919050565b60006200191c8262001902565b9050919050565b600062001930826200190f565b9050919050565b6200194c620019468262000f79565b62001923565b82525050565b6000620019608285620018e7565b60028201915062001972828462001937565b6014820191508190509392505050565b600081519050919050565b600081905092915050565b6000620019a58262001982565b620019b181856200198d565b9350620019c381856020860162001396565b80840191505092915050565b7f204f63746f000000000000000000000000000000000000000000000000000000815250565b600062001a03828462001998565b915062001a1082620019cf565b60058201915081905092915050565b7f2e6f000000000000000000000000000000000000000000000000000000000000815250565b600062001a53828462001998565b915062001a608262001a1f565b60028201915081905092915050565b600062001a7c8262001982565b62001a888185620015a0565b935062001a9a81856020860162001396565b62001aa58162001293565b840191505092915050565b6000604082019050818103600083015262001acc818562001a6f565b9050818103602083015262001ae2818462001a6f565b90509392505050565b7f5b6c6f636b5d204c6f636b20616d6f756e74206e6565647320746f206265206260008201527f6967676572207468616e20302e00000000000000000000000000000000000000602082015250565b600062001b49602d83620015a0565b915062001b568262001aeb565b604082019050919050565b6000602082019050818103600083015262001b7c8162001b3a565b9050919050565b600062001b908262000fbe565b915062001b9d8362000fbe565b9250827fffffffffffffffffffffffffffffffffffffffffffffffffffffffffffffffff0382111562001bd55762001bd462001652565b5b828201905092915050565b600060608201905062001bf7600083018662001201565b62001c06602083018562001201565b62001c15604083018462001240565b949350505050565b7f5b6c6f636b5d20556e7375636365737366756c20746f6b656e207472616e736660008201527f65722e0000000000000000000000000000000000000000000000000000000000602082015250565b600062001c7b602383620015a0565b915062001c888262001c1d565b604082019050919050565b6000602082019050818103600083015262001cae8162001c6c565b9050919050565b60006020828403121562001cce5762001ccd62000f10565b5b600082015167ffffffffffffffff81111562001cef5762001cee62000f15565b5b62001cfd8482850162001417565b91505092915050565b600082825260208201905092915050565b82818337600083830152505050565b600062001d34838562001d06565b935062001d4383858462001d17565b62001d4e8362001293565b840190509392505050565b60006101208201905062001d71600083018d6200122f565b818103602083015262001d86818b8d62001d26565b905062001d97604083018a62001201565b62001da6606083018962001240565b62001db5608083018862001240565b62001dc460a083018762001240565b62001dd360c083018662001201565b81810360e083015262001de7818562001a6f565b905081810361010083015262001dfe818462001a6f565b90509b9a5050505050505050505050565b600062001e1c8262000fbe565b91507fffffffffffffffffffffffffffffffffffffffffffffffffffffffffffffffff820362001e515762001e5062001652565b5b60018201905091905056fe60806040523480156200001157600080fd5b5060405162002267380380620022678339818101604052810190620000379190620003b0565b818181600390805190602001906200005192919062000163565b5080600490805190602001906200006a92919062000163565b5050506200008d620000816200009560201b60201c565b6200009d60201b60201c565b505062000499565b600033905090565b6000600560009054906101000a900473ffffffffffffffffffffffffffffffffffffffff16905081600560006101000a81548173ffffffffffffffffffffffffffffffffffffffff021916908373ffffffffffffffffffffffffffffffffffffffff1602179055508173ffffffffffffffffffffffffffffffffffffffff168173ffffffffffffffffffffffffffffffffffffffff167f8be0079c531659141344cd1fd0a4f28419497f9722a3daafe3b4186f6b6457e060405160405180910390a35050565b828054620001719062000464565b90600052602060002090601f016020900481019282620001955760008555620001e1565b82601f10620001b057805160ff1916838001178555620001e1565b82800160010185558215620001e1579182015b82811115620001e0578251825591602001919060010190620001c3565b5b509050620001f09190620001f4565b5090565b5b808211156200020f576000816000905550600101620001f5565b5090565b6000604051905090565b600080fd5b600080fd5b600080fd5b600080fd5b6000601f19601f8301169050919050565b7f4e487b7100000000000000000000000000000000000000000000000000000000600052604160045260246000fd5b6200027c8262000231565b810181811067ffffffffffffffff821117156200029e576200029d62000242565b5b80604052505050565b6000620002b362000213565b9050620002c1828262000271565b919050565b600067ffffffffffffffff821115620002e457620002e362000242565b5b620002ef8262000231565b9050602081019050919050565b60005b838110156200031c578082015181840152602081019050620002ff565b838111156200032c576000848401525b50505050565b6000620003496200034384620002c6565b620002a7565b9050828152602081018484840111156200036857620003676200022c565b5b62000375848285620002fc565b509392505050565b600082601f83011262000395576200039462000227565b5b8151620003a784826020860162000332565b91505092915050565b60008060408385031215620003ca57620003c96200021d565b5b600083015167ffffffffffffffff811115620003eb57620003ea62000222565b5b620003f9858286016200037d565b925050602083015167ffffffffffffffff8111156200041d576200041c62000222565b5b6200042b858286016200037d565b9150509250929050565b7f4e487b7100000000000000000000000000000000000000000000000000000000600052602260045260246000fd5b600060028204905060018216806200047d57607f821691505b60208210810362000493576200049262000435565b5b50919050565b611dbe80620004a96000396000f3fe608060405234801561001057600080fd5b506004361061010b5760003560e01c806370a08231116100a257806395d89b411161007157806395d89b41146102a6578063a457c2d7146102c4578063a9059cbb146102f4578063dd62ed3e14610324578063f2fde38b146103545761010b565b806370a0823114610232578063715018a61461026257806379cc67901461026c5780638da5cb5b146102885761010b565b8063313ce567116100de578063313ce567146101ac57806339509351146101ca57806340c10f19146101fa57806342966c68146102165761010b565b806306fdde0314610110578063095ea7b31461012e57806318160ddd1461015e57806323b872dd1461017c575b600080fd5b610118610370565b6040516101259190611360565b60405180910390f35b6101486004803603810190610143919061141b565b610402565b6040516101559190611476565b60405180910390f35b610166610425565b60405161017391906114a0565b60405180910390f35b610196600480360381019061019191906114bb565b61042f565b6040516101a39190611476565b60405180910390f35b6101b461045e565b6040516101c1919061152a565b60405180910390f35b6101e460048036038101906101df919061141b565b610467565b6040516101f19190611476565b60405180910390f35b610214600480360381019061020f919061141b565b610511565b005b610230600480360381019061022b9190611545565b61059b565b005b61024c60048036038101906102479190611572565b6105af565b60405161025991906114a0565b60405180910390f35b61026a6105f7565b005b6102866004803603810190610281919061141b565b61067f565b005b61029061069f565b60405161029d91906115ae565b60405180910390f35b6102ae6106c9565b6040516102bb9190611360565b60405180910390f35b6102de60048036038101906102d9919061141b565b61075b565b6040516102eb9190611476565b60405180910390f35b61030e6004803603810190610309919061141b565b610845565b60405161031b9190611476565b60405180910390f35b61033e600480360381019061033991906115c9565b610868565b60405161034b91906114a0565b60405180910390f35b61036e60048036038101906103699190611572565b6108ef565b005b60606003805461037f90611638565b80601f01602080910402602001604051908101604052809291908181526020018280546103ab90611638565b80156103f85780601f106103cd576101008083540402835291602001916103f8565b820191906000526020600020905b8154815290600101906020018083116103db57829003601f168201915b5050505050905090565b60008061040d6109e6565b905061041a8185856109ee565b600191505092915050565b6000600254905090565b60008061043a6109e6565b9050610447858285610bb7565b610452858585610c43565b60019150509392505050565b60006012905090565b6000806104726109e6565b9050610506818585600160008673ffffffffffffffffffffffffffffffffffffffff1673ffffffffffffffffffffffffffffffffffffffff16815260200190815260200160002060008973ffffffffffffffffffffffffffffffffffffffff1673ffffffffffffffffffffffffffffffffffffffff168152602001908152602001600020546105019190611698565b6109ee565b600191505092915050565b6105196109e6565b73ffffffffffffffffffffffffffffffffffffffff1661053761069f565b73ffffffffffffffffffffffffffffffffffffffff161461058d576040517f08c379a00000000000000000000000000000000000000000000000000000000081526004016105849061173a565b60405180910390fd5b6105978282610ec2565b5050565b6105ac6105a66109e6565b82611021565b50565b60008060008373ffffffffffffffffffffffffffffffffffffffff1673ffffffffffffffffffffffffffffffffffffffff168152602001908152602001600020549050919050565b6105ff6109e6565b73ffffffffffffffffffffffffffffffffffffffff1661061d61069f565b73ffffffffffffffffffffffffffffffffffffffff1614610673576040517f08c379a000000000000000000000000000000000000000000000000000000000815260040161066a9061173a565b60405180910390fd5b61067d60006111f7565b565b6106918261068b6109e6565b83610bb7565b61069b8282611021565b5050565b6000600560009054906101000a900473ffffffffffffffffffffffffffffffffffffffff16905090565b6060600480546106d890611638565b80601f016020809104026020016040519081016040528092919081815260200182805461070490611638565b80156107515780601f1061072657610100808354040283529160200191610751565b820191906000526020600020905b81548152906001019060200180831161073457829003601f168201915b5050505050905090565b6000806107666109e6565b90506000600160008373ffffffffffffffffffffffffffffffffffffffff1673ffffffffffffffffffffffffffffffffffffffff16815260200190815260200160002060008673ffffffffffffffffffffffffffffffffffffffff1673ffffffffffffffffffffffffffffffffffffffff1681526020019081526020016000205490508381101561082c576040517f08c379a0000000000000000000000000000000000000000000000000000000008152600401610823906117cc565b60405180910390fd5b61083982868684036109ee565b60019250505092915050565b6000806108506109e6565b905061085d818585610c43565b600191505092915050565b6000600160008473ffffffffffffffffffffffffffffffffffffffff1673ffffffffffffffffffffffffffffffffffffffff16815260200190815260200160002060008373ffffffffffffffffffffffffffffffffffffffff1673ffffffffffffffffffffffffffffffffffffffff16815260200190815260200160002054905092915050565b6108f76109e6565b73ffffffffffffffffffffffffffffffffffffffff1661091561069f565b73ffffffffffffffffffffffffffffffffffffffff161461096b576040517f08c379a00000000000000000000000000000000000000000000000000000000081526004016109629061173a565b60405180910390fd5b600073ffffffffffffffffffffffffffffffffffffffff168173ffffffffffffffffffffffffffffffffffffffff16036109da576040517f08c379a00000000000000000000000000000000000000000000000000000000081526004016109d19061185e565b60405180910390fd5b6109e3816111f7565b50565b600033905090565b600073ffffffffffffffffffffffffffffffffffffffff168373ffffffffffffffffffffffffffffffffffffffff1603610a5d576040517f08c379a0000000000000000000000000000000000000000000000000000000008152600401610a54906118f0565b60405180910390fd5b600073ffffffffffffffffffffffffffffffffffffffff168273ffffffffffffffffffffffffffffffffffffffff1603610acc576040517f08c379a0000000000000000000000000000000000000000000000000000000008152600401610ac390611982565b60405180910390fd5b80600160008573ffffffffffffffffffffffffffffffffffffffff1673ffffffffffffffffffffffffffffffffffffffff16815260200190815260200160002060008473ffffffffffffffffffffffffffffffffffffffff1673ffffffffffffffffffffffffffffffffffffffff168152602001908152602001600020819055508173ffffffffffffffffffffffffffffffffffffffff168373ffffffffffffffffffffffffffffffffffffffff167f8c5be1e5ebec7d5bd14f71427d1e84f3dd0314c0f7b2291e5b200ac8c7c3b92583604051610baa91906114a0565b60405180910390a3505050565b6000610bc38484610868565b90507fffffffffffffffffffffffffffffffffffffffffffffffffffffffffffffffff8114610c3d5781811015610c2f576040517f08c379a0000000000000000000000000000000000000000000000000000000008152600401610c26906119ee565b60405180910390fd5b610c3c84848484036109ee565b5b50505050565b600073ffffffffffffffffffffffffffffffffffffffff168373ffffffffffffffffffffffffffffffffffffffff1603610cb2576040517f08c379a0000000000000000000000000000000000000000000000000000000008152600401610ca990611a80565b60405180910390fd5b600073ffffffffffffffffffffffffffffffffffffffff168273ffffffffffffffffffffffffffffffffffffffff1603610d21576040517f08c379a0000000000000000000000000000000000000000000000000000000008152600401610d1890611b12565b60405180910390fd5b610d2c8383836112bd565b60008060008573ffffffffffffffffffffffffffffffffffffffff1673ffffffffffffffffffffffffffffffffffffffff16815260200190815260200160002054905081811015610db2576040517f08c379a0000000000000000000000000000000000000000000000000000000008152600401610da990611ba4565b60405180910390fd5b8181036000808673ffffffffffffffffffffffffffffffffffffffff1673ffffffffffffffffffffffffffffffffffffffff16815260200190815260200160002081905550816000808573ffffffffffffffffffffffffffffffffffffffff1673ffffffffffffffffffffffffffffffffffffffff1681526020019081526020016000206000828254610e459190611698565b925050819055508273ffffffffffffffffffffffffffffffffffffffff168473ffffffffffffffffffffffffffffffffffffffff167fddf252ad1be2c89b69c2b068fc378daa952ba7f163c4a11628f55a4df523b3ef84604051610ea991906114a0565b60405180910390a3610ebc8484846112c2565b50505050565b600073ffffffffffffffffffffffffffffffffffffffff168273ffffffffffffffffffffffffffffffffffffffff1603610f31576040517f08c379a0000000000000000000000000000000000000000000000000000000008152600401610f2890611c10565b60405180910390fd5b610f3d600083836112bd565b8060026000828254610f4f9190611698565b92505081905550806000808473ffffffffffffffffffffffffffffffffffffffff1673ffffffffffffffffffffffffffffffffffffffff1681526020019081526020016000206000828254610fa49190611698565b925050819055508173ffffffffffffffffffffffffffffffffffffffff16600073ffffffffffffffffffffffffffffffffffffffff167fddf252ad1be2c89b69c2b068fc378daa952ba7f163c4a11628f55a4df523b3ef8360405161100991906114a0565b60405180910390a361101d600083836112c2565b5050565b600073ffffffffffffffffffffffffffffffffffffffff168273ffffffffffffffffffffffffffffffffffffffff1603611090576040517f08c379a000000000000000000000000000000000000000000000000000000000815260040161108790611ca2565b60405180910390fd5b61109c826000836112bd565b60008060008473ffffffffffffffffffffffffffffffffffffffff1673ffffffffffffffffffffffffffffffffffffffff16815260200190815260200160002054905081811015611122576040517f08c379a000000000000000000000000000000000000000000000000000000000815260040161111990611d34565b60405180910390fd5b8181036000808573ffffffffffffffffffffffffffffffffffffffff1673ffffffffffffffffffffffffffffffffffffffff1681526020019081526020016000208190555081600260008282546111799190611d54565b92505081905550600073ffffffffffffffffffffffffffffffffffffffff168373ffffffffffffffffffffffffffffffffffffffff167fddf252ad1be2c89b69c2b068fc378daa952ba7f163c4a11628f55a4df523b3ef846040516111de91906114a0565b60405180910390a36111f2836000846112c2565b505050565b6000600560009054906101000a900473ffffffffffffffffffffffffffffffffffffffff16905081600560006101000a81548173ffffffffffffffffffffffffffffffffffffffff021916908373ffffffffffffffffffffffffffffffffffffffff1602179055508173ffffffffffffffffffffffffffffffffffffffff168173ffffffffffffffffffffffffffffffffffffffff167f8be0079c531659141344cd1fd0a4f28419497f9722a3daafe3b4186f6b6457e060405160405180910390a35050565b505050565b505050565b600081519050919050565b600082825260208201905092915050565b60005b838110156113015780820151818401526020810190506112e6565b83811115611310576000848401525b50505050565b6000601f19601f8301169050919050565b6000611332826112c7565b61133c81856112d2565b935061134c8185602086016112e3565b61135581611316565b840191505092915050565b6000602082019050818103600083015261137a8184611327565b905092915050565b600080fd5b600073ffffffffffffffffffffffffffffffffffffffff82169050919050565b60006113b282611387565b9050919050565b6113c2816113a7565b81146113cd57600080fd5b50565b6000813590506113df816113b9565b92915050565b6000819050919050565b6113f8816113e5565b811461140357600080fd5b50565b600081359050611415816113ef565b92915050565b6000806040838503121561143257611431611382565b5b6000611440858286016113d0565b925050602061145185828601611406565b9150509250929050565b60008115159050919050565b6114708161145b565b82525050565b600060208201905061148b6000830184611467565b92915050565b61149a816113e5565b82525050565b60006020820190506114b56000830184611491565b92915050565b6000806000606084860312156114d4576114d3611382565b5b60006114e2868287016113d0565b93505060206114f3868287016113d0565b925050604061150486828701611406565b9150509250925092565b600060ff82169050919050565b6115248161150e565b82525050565b600060208201905061153f600083018461151b565b92915050565b60006020828403121561155b5761155a611382565b5b600061156984828501611406565b91505092915050565b60006020828403121561158857611587611382565b5b6000611596848285016113d0565b91505092915050565b6115a8816113a7565b82525050565b60006020820190506115c3600083018461159f565b92915050565b600080604083850312156115e0576115df611382565b5b60006115ee858286016113d0565b92505060206115ff858286016113d0565b9150509250929050565b7f4e487b7100000000000000000000000000000000000000000000000000000000600052602260045260246000fd5b6000600282049050600182168061165057607f821691505b60208210810361166357611662611609565b5b50919050565b7f4e487b7100000000000000000000000000000000000000000000000000000000600052601160045260246000fd5b60006116a3826113e5565b91506116ae836113e5565b9250827fffffffffffffffffffffffffffffffffffffffffffffffffffffffffffffffff038211156116e3576116e2611669565b5b828201905092915050565b7f4f776e61626c653a2063616c6c6572206973206e6f7420746865206f776e6572600082015250565b60006117246020836112d2565b915061172f826116ee565b602082019050919050565b6000602082019050818103600083015261175381611717565b9050919050565b7f45524332303a2064656372656173656420616c6c6f77616e63652062656c6f7760008201527f207a65726f000000000000000000000000000000000000000000000000000000602082015250565b60006117b66025836112d2565b91506117c18261175a565b604082019050919050565b600060208201905081810360008301526117e5816117a9565b9050919050565b7f4f776e61626c653a206e6577206f776e657220697320746865207a65726f206160008201527f6464726573730000000000000000000000000000000000000000000000000000602082015250565b60006118486026836112d2565b9150611853826117ec565b604082019050919050565b600060208201905081810360008301526118778161183b565b9050919050565b7f45524332303a20617070726f76652066726f6d20746865207a65726f2061646460008201527f7265737300000000000000000000000000000000000000000000000000000000602082015250565b60006118da6024836112d2565b91506118e58261187e565b604082019050919050565b60006020820190508181036000830152611909816118cd565b9050919050565b7f45524332303a20617070726f766520746f20746865207a65726f20616464726560008201527f7373000000000000000000000000000000000000000000000000000000000000602082015250565b600061196c6022836112d2565b915061197782611910565b604082019050919050565b6000602082019050818103600083015261199b8161195f565b9050919050565b7f45524332303a20696e73756666696369656e7420616c6c6f77616e6365000000600082015250565b60006119d8601d836112d2565b91506119e3826119a2565b602082019050919050565b60006020820190508181036000830152611a07816119cb565b9050919050565b7f45524332303a207472616e736665722066726f6d20746865207a65726f20616460008201527f6472657373000000000000000000000000000000000000000000000000000000602082015250565b6000611a6a6025836112d2565b9150611a7582611a0e565b604082019050919050565b60006020820190508181036000830152611a9981611a5d565b9050919050565b7f45524332303a207472616e7366657220746f20746865207a65726f206164647260008201527f6573730000000000000000000000000000000000000000000000000000000000602082015250565b6000611afc6023836112d2565b9150611b0782611aa0565b604082019050919050565b60006020820190508181036000830152611b2b81611aef565b9050919050565b7f45524332303a207472616e7366657220616d6f756e742065786365656473206260008201527f616c616e63650000000000000000000000000000000000000000000000000000602082015250565b6000611b8e6026836112d2565b9150611b9982611b32565b604082019050919050565b60006020820190508181036000830152611bbd81611b81565b9050919050565b7f45524332303a206d696e7420746f20746865207a65726f206164647265737300600082015250565b6000611bfa601f836112d2565b9150611c0582611bc4565b602082019050919050565b60006020820190508181036000830152611c2981611bed565b9050919050565b7f45524332303a206275726e2066726f6d20746865207a65726f2061646472657360008201527f7300000000000000000000000000000000000000000000000000000000000000602082015250565b6000611c8c6021836112d2565b9150611c9782611c30565b604082019050919050565b60006020820190508181036000830152611cbb81611c7f565b9050919050565b7f45524332303a206275726e20616d6f756e7420657863656564732062616c616e60008201527f6365000000000000000000000000000000000000000000000000000000000000602082015250565b6000611d1e6022836112d2565b9150611d2982611cc2565b604082019050919050565b60006020820190508181036000830152611d4d81611d11565b9050919050565b6000611d5f826113e5565b9150611d6a836113e5565b925082821015611d7d57611d7c611669565b5b82820390509291505056fea2646970667358221220238bda4f379a39ec26f41b7403aec05d14e94a15bc09911284f58cae4c33acfd64736f6c634300080d0033a2646970667358221220182ade2ebc04959880e73bb00e62bb86abc6d47c4be66542de5f62cc853aa99964736f6c634300080d0033",
  "linkReferences": {},
  "deployedLinkReferences": {}
}